:100000000C942A000C9447000C9447000C94470071
:100010000C9447000C9447000C94800A0C94570AE7
:100020000C9447000C9447000C9447000C94470034
:100030000C9447000C9451070C9425070C9447002E
:100040000C9447000C9447000C9447000C94470014
:100050000C94470011241FBECFE5D8E0DEBFCDBF12
:1000600011E0A0E6B0E0E2ECFAE202C005900D92E9
:10007000A83AB107D9F711E0A8EAB1E001C01D9292
:10008000AC3CB107E1F70E9416140C945F150C9478
:100090000000A0E0B0E0EFE4F0E00C942815DC01F3
:1000A0002B01FA019C91923008F439C1EB0188814F
:1000B000823008F433C1943069F4843009F02FC1E0
:1000C00011969C9111978981981709F428C1AFE87E
:1000D000B0E025C1843009F421C18230A9F4923006
:1000E00009F01DC19A01AD0188E0EA010990AE0155
:1000F000E90109929E018150C1F7E20189811196BF
:100100009C918923818308C1923009F407C112961A
:100110002D903C901397EB018A819B811496AD90B2
:10012000BD90CD90DC901797EC80FD800E811F81F3
:100130009101281B390BB90137FF04C066277727C7
:10014000621B730B603271050CF061C0121613064E
:100150006CF537014801062E04C096948794779475
:1001600067940A94D2F721E030E040E050E004C008
:10017000220F331F441F551F6A95D2F7215030407C
:10018000404050402E213F2140235123211531056D
:100190004105510521F021E030E040E050E07901D7
:1001A0008A01E628F728082919293CC0232BD1F118
:1001B000260E371E35014601062E04C096948794FC
:1001C000779467940A94D2F721E030E040E050E061
:1001D00004C0220F331F441F551F6A95D2F72150C8
:1001E0003040404050402A213B214C215D212115C7
:1001F00031054105510521F021E030E040E050E0BB
:1002000059016A01A628B728C828D9280BC0821529
:1002100093052CF01C01AA24BB24650103C0EE2425
:10022000FF24870111969C91D20111968C91981709
:1002300009F445C0992339F0A80197012A193B090F
:100240004C095D0906C0A60195012E193F09400B16
:10025000510B57FD08C011823382228224833583DB
:10026000468357831DC081E08183338222828827A1
:100270009927DC01821B930BA40BB50B8483958318
:10028000A683B7830DC0220F331F441F551F24833D
:100290003583468357838281938101979383828339
:1002A0002481358146815781DA01C9010197A1096D
:1002B000B1098F5F9F4FAF4FBF4328F30BC09183AE
:1002C00033822282EA0CFB1C0C1D1D1DE482F58288
:1002D0000683178383E0808324813581468157819B
:1002E00057FF1AC0C901AA2797FDA095BA2F8170A0
:1002F0009070A070B0705695479537952795822BD2
:10030000932BA42BB52B84839583A683B7838281FB
:100310009381019693838283DF0101C0D201CD01D5
:10032000CDB7DEB7E2E10C944415A0E2B0E0EBE912
:10033000F1E00C94341569837A838B839C832D833D
:100340003E834F835887E9E0EE2EF12CEC0EFD1E24
:10035000CE010196B7010E949C058E010F5E1F4FD2
:10036000CE010596B8010E949C058A8991E08927F3
:100370008A8BC701B801AE01475E5F4F0E944900FA
:100380000E94C704A096E6E00C945015A0E2B0E0ED
:10039000ECECF1E00C94341569837A838B839C83B5
:1003A0002D833E834F835887F9E0EF2EF12CEC0E1E
:1003B000FD1ECE010196B7010E949C058E010F5EC5
:1003C0001F4FCE010596B8010E949C05C701B801D8
:1003D000AE01475E5F4F0E9449000E94C704A0968D
:1003E000E6E00C945015A0E2B0E0E9EFF1E00C94E7
:1003F000281569837A838B839C832D833E834F8367
:100400005887CE010196BE01675F7F4F0E949C0511
:10041000CE010596BE016F5E7F4F0E949C059985B7
:10042000923088F089898230C8F0943019F4823093
:1004300051F404C0843029F4923081F48FE890E0C4
:10044000C6C0923049F420E09A858A89981321E049
:100450002A87CE010996BBC0823049F420E09A85F4
:100460008A89981321E02A8BCE014196B0C02D8451
:100470003E844F8458886D887E888F88988CEE24BF
:10048000FF248701AA24BB24650140E050E060E01E
:1004900070E0E0E0F0E0C10181709070892BE9F03C
:1004A000E60CF71C081D191D9A01AB012A0D3B1D16
:1004B0004C1D5D1D80E090E0A0E0B0E0E614F70484
:1004C0000805190520F481E090E0A0E0B0E0BA0151
:1004D000A901480F591F6A1F7B1FAA0CBB1CCC1C0B
:1004E000DD1C97FE08C081E090E0A0E0B0E0A82A03
:1004F000B92ACA2ADB2A3196E032F10549F0660CA6
:10050000771C881C991C5694479437942794C3CF22
:10051000FA85EA892B893C898B859C85280F391FB0
:100520002E5F3F4F17C0CA0181709070892B61F018
:1005300016950795F794E79480E090E0A0E0B0E886
:10054000E82AF92A0A2B1B2B76956795579547952C
:100550002F5F3F4F77FDE7CF0CC0440F551F661F3D
:10056000771F17FD4160EE0CFF1C001F111F21506B
:100570003040403090E0590790E0690790E47907F7
:1005800060F32B8F3C8FDB01CA018F779070A070D6
:10059000B07080349105A105B10561F447FD0AC032
:1005A000E114F1040105110529F0405C5F4F6F4F24
:1005B0007F4F40781A8EFE1711F081E08A8F4D8FA1
:1005C0005E8F6F8F78A383E0898FCE0149960E945A
:1005D000C704A096E2E10C944415A8E1B0E0E3EF73
:1005E000F2E00C94341569837A838B839C832D838A
:1005F0003E834F83588789E0E82EF12CEC0EFD1ED8
:10060000CE010196B7010E949C058E010F5E1F4F1F
:10061000CE010596B8010E949C058985823040F084
:100620008989823028F0C701B8010E94140601C0F0
:1006300081E06896E6E00C945015A8E1B0E0E3E2B2
:10064000F3E00C94341569837A838B839C832D8328
:100650003E834F83588789E0E82EF12CEC0EFD1E77
:10066000CE010196B7010E949C058E010F5E1F4FBF
:10067000CE010596B8010E949C058985823040F024
:100680008989823028F0C701B8010E94140601C090
:1006900081E06896E6E00C945015A8E0B0E0E3E550
:1006A000F3E00C9431159B01AC0183E08983DA01FE
:1006B000C9018827B7FD83959927AA27BB27B82E9C
:1006C000211531054105510519F482E089833AC0AD
:1006D0008823A9F0203080E0380780E0480780E8D0
:1006E000580729F460E070E080E09FEC30C0EE2411
:1006F000FF248701E21AF30A040B150B02C07901EB
:100700008A018EE1C82ED12CDC82CB82ED82FE8262
:100710000F831887C801B7010E9478040197181643
:10072000190684F4082E04C0EE0CFF1C001F111FD4
:100730000A94D2F7ED82FE820F831887C81AD90A6D
:10074000DC82CB82BA82CE0101960E94C704289631
:10075000E9E00C944D15ACE0B0E0E1EBF3E00C9473
:10076000381569837A838B839C83CE010196BE0101
:100770006B5F7F4F0E949C058D81823061F18230DA
:1007800050F1843021F48E81882351F12EC02F81C5
:10079000388537FD20C06E812F3131051CF066236E
:1007A000F9F023C08EE190E0821B930B29853A85F6
:1007B0004B855C8504C056954795379527958A9556
:1007C000D2F76623B1F050954095309521953F4F73
:1007D0004F4F5F4F0EC020E030E040E050E009C0D6
:1007E0002FEF3FEF4FEF5FE704C020E030E040E045
:1007F00050E8B901CA012C96E2E00C945415A8E027
:10080000B0E0E5E0F4E00C9430157B018C0161155B
:1008100071058105910519F482E0898360C083E048
:1008200089838EE1C82ED12CDC82CB82ED82FE82C0
:100830000F831887C801B7010E947804FC01319723
:10084000F7FF3BC0222733272E1B3F0B57016801C0
:10085000022E04C0D694C794B794A7940A94D2F7F2
:1008600040E050E060E070E081E090E0A0E0B0E0C7
:1008700004C0880F991FAA1FBB1F2A95D2F70197A2
:10088000A109B1098E219F21A023B1230097A105C1
:10089000B10521F041E050E060E070E04A295B29B9
:1008A0006C297D294D835E836F8378878EE190E08C
:1008B0008E1B9F0B9C838B8312C0309781F00E2E72
:1008C00004C0EE0CFF1C001F111F0A94D2F7ED822A
:1008D000FE820F831887CE1ADF0ADC82CB821A824F
:1008E000CE0101960E94C7042896EAE00C944C15AC
:1008F000EF92FF920F931F937B018C0180E0E8162B
:1009000080E0F80681E0080780E0180788F48FEFA0
:10091000E816F1040105110531F028F088E090E0B7
:10092000A0E0B0E017C080E090E0A0E0B0E012C02E
:1009300080E0E81680E0F80680E0080781E018070C
:1009400028F088E190E0A0E0B0E004C080E190E011
:10095000A0E0B0E020E230E040E050E0281B390B9E
:100960004A0B5B0B04C016950795F794E7948A959C
:10097000D2F7F701E956FF4F8081281B3109410961
:100980005109C9011F910F91FF90EF900895DF92D7
:10099000EF92FF920F931F93FC01E480F580068194
:1009A0001781D1808081823048F480E090E0A0E11E
:1009B000B0E0E82AF92A0A2B1B2BA5C0843009F4E1
:1009C0009FC0823021F4EE24FF24870105C0E1148A
:1009D000F1040105110519F4E0E0F0E096C0628130
:1009E00073819FEF623879070CF05BC022E83FEF1C
:1009F000261B370B2A3131052CF020E030E040E097
:100A000050E02AC0B801A701022E04C07695679570
:100A1000579547950A94D2F781E090E0A0E0B0E0C6
:100A200004C0880F991FAA1FBB1F2A95D2F70197F0
:100A3000A109B1098E219F21A023B1230097A1050F
:100A4000B10521F081E090E0A0E0B0E09A01AB01B7
:100A5000282B392B4A2B5B2BDA01C9018F77907039
:100A6000A070B07080349105A105B10539F427FF5D
:100A700009C0205C3F4F4F4F5F4F04C0215C3F4F88
:100A80004F4F5F4FE0E0F0E02030A0E03A07A0E0F9
:100A90004A07A0E45A0710F0E1E0F0E079018A018A
:100AA00027C06038710564F5FB01E158FF4FD8019C
:100AB000C7018F779070A070B07080349105A10548
:100AC000B10539F4E7FE0DC080E490E0A0E0B0E0AD
:100AD00004C08FE390E0A0E0B0E0E80EF91E0A1F2A
:100AE0001B1F17FF05C016950795F794E7943196DD
:100AF00087E016950795F794E7948A95D1F705C096
:100B0000EE24FF248701EFEFF0E06E2F6795662754
:100B10006795902F9F77D794DD24D7948E2F869555
:100B2000492F462B582F5D29B701CA011F910F91FC
:100B3000FF90EF90DF900895FC01DB01408151812F
:100B40002281622F6F7770E0221F2227221F93815C
:100B5000892F880F822B282F30E0991F9927991F02
:100B600011969C93119721153105A9F54115510551
:100B70006105710511F482E037C082E89FEF13969A
:100B80009C938E9312979A01AB0167E0220F331F5B
:100B9000441F551F6A95D1F783E08C930DC0220F37
:100BA000331F441F551F12968D919C9113970197E7
:100BB00013969C938E931297203080E0380780E044
:100BC000480780E4580758F314962D933D934D93AE
:100BD0005C93179708952F3F310579F4411551051E
:100BE0006105710519F484E08C93089564FF03C0D6
:100BF00081E08C9312C01C9210C02F573040139686
:100C00003C932E93129783E08C9387E0440F551FFB
:100C1000661F771F8A95D1F7706414964D935D9384
:100C20006D937C93179708951F93DC01FB019C91B2
:100C3000923008F447C08081823008F443C0943079
:100C400051F411961C91843099F58181682F70E0E0
:100C5000611B71093FC0843021F0923031F4823041
:100C6000B9F18181882389F12DC011961C911197CA
:100C70008230F1F081811817D9F412962D913C91B0
:100C80001397828193818217930794F0281739076D
:100C9000BCF014968D919D910D90BC91A02D248156
:100CA000358146815781281739074A075B0718F4B1
:100CB000112341F00AC082179307A407B50740F437
:100CC000112319F061E070E005C06FEF7FEF02C003
:100CD00060E070E0CB011F9108951CB81BB81AB8F2
:100CE00010BC19B810BC8AB188618AB98FEC89B977
:100CF00080B5866880BD08951CB81BB81AB810BCB2
:100D000019B810BC08955D9BFECF8CB95D9A08950B
:100D10005F9BFECF5F9A8CB108955F926F927F9236
:100D20008F929F92AF92BF92CF92DF92EF92FF92FB
:100D30000F931F935B016C0161157105810591058E
:100D400009F44CC097FD5DC0662477244301552407
:100D5000C401B3012AE030E040E050E00E94B81442
:100D60007B018C01C601B5010E940D153B014C01B0
:100D70006E0C7F1C801E911EC601B5012AE030E07A
:100D800040E050E00E940D15C901DA015C016D01DF
:100D90005394A114B104C104D104D1F6552019F122
:100DA0005D9BFECFC401B3012AE030E040E050E09B
:100DB0000E940D15605D6CB95D9A5A94A1F0C40152
:100DC000B3012AE030E040E050E00E940D15C90177
:100DD000DA013C014D015D9BE3CFE4CF5D9BFECF8B
:100DE00080E38CB95D9A1F910F91FF90EF90DF9097
:100DF000CF90BF90AF909F908F907F906F905F90BB
:100E000008955D9BFECFD094C094B094A094A11C93
:100E1000B11CC11CD11C8DE28CB95D9A95CF569A3C
:100E20009FB790689FBF8093BD010895579A8FB771
:100E300080688FBF08959093A9018093A8010895B9
:100E40009093AB018093AA0108951F920F920FB661
:100E50000F9211242F933F934F935F936F937F9340
:100E60008F939F93AF93BF93EF93FF93E091A8016C
:100E7000F091A901309709F009958091BD018CB9D5
:100E8000FF91EF91BF91AF919F918F917F916F9162
:100E90005F914F913F912F910F900FBE0F901F9038
:100EA00018951F920F920FB60F9211242F933F9314
:100EB0004F935F936F937F938F939F93AF93BF9362
:100EC000EF93FF938CB18093B001E091AA01F09170
:100ED000AB01309709F00995FF91EF91BF91AF9168
:100EE0009F918F917F916F915F914F913F912F9142
:100EF0000F900FBE0F901F9018955F926F927F9288
:100F00008F929F92AF92BF92CF92DF92EF92FF9219
:100F10000F931F93DF93CF93CDB7DEB728970FB60C
:100F2000F894DEBF0FBECDBF6D837E838F8398871D
:100F30000E94AB0369837A838B839C83611571055F
:100F40008105910509F450C089819A81AB81BC81EA
:100F5000B7FDCBC03C014D01AA24BB24650155243B
:100F6000C601B5012AE030E040E050E00E94B8142C
:100F70007B018C01C401B3010E940D155B016C0162
:100F8000AE0CBF1CC01ED11EC401B3012AE030E06C
:100F900040E050E00E940D15C901DA013C014D010D
:100FA00053946114710481049104D1F6552009F120
:100FB0005D9BFECFC601B5012AE030E040E050E085
:100FC0000E940D15605D6CB95D9A5A9491F0C6014E
:100FD000B5012AE030E040E050E00E940D15C90163
:100FE000DA015C016D01E4CF5D9BFECF80E38CB93B
:100FF0005D9A69817A818B819C810E944D039B015E
:10100000AC016D817E818F8198850E9495015B0185
:101010006C0120E030E040E050E00E941D03882396
:101020000CF49EC05D9BFECF8EE28CB95D9AC6012A
:10103000B50120E030E048EC52E40E94F3010E9448
:10104000AB035B016C01611571058105910509F424
:101050005EC097FD77C06624772443015524C40100
:10106000B3012AE030E040E050E00E94B8147B0178
:101070008C01C601B5010E940D153B014C016E0C9F
:101080007F1C801E911EC601B5012AE030E040E0C1
:1010900050E00E940D15C901DA015C016D01539405
:1010A000A114B104C104D104D1F65520A9F15D9B6E
:1010B000FECFC401B3012AE030E040E050E00E94DE
:1010C0000D15605D6CB95D9A5A9431F1C401B3019C
:1010D0002AE030E040E050E00E940D15C901DA013D
:1010E0003C014D015D9BE3CFE4CF5D9BFECF69806A
:1010F0007A808B809C809094809470946094611C22
:10110000711C811C911C8DE28CB95D9A25CF5D9B71
:10111000FECF80E38CB95D9A28960FB6F894DEBFB7
:101120000FBECDBFCF91DF911F910F91FF90EF9038
:10113000DF90CF90BF90AF909F908F907F906F90F7
:101140005F9008955D9BFECFD094C094B094A0941E
:10115000A11CB11CC11CD11C8DE28CB95D9A7BCF46
:1011600060E070E080E090E0A60195010E949501AA
:101170005B016C0157CF1FBC1EBC1DBC1CBC1BBC43
:101180001ABC19BC18BC17BC16BC89B7837C89BFB4
:1011900088B7837C88BF8D9A8EB588608EBD89B7ED
:1011A000806189BF8FB780688FBF08950F931F93A9
:1011B0001DBC1CBC0AB51BB5A0E0B0E0BC01CD0154
:1011C00020E43FE140E050E00E94B8142AE0969508
:1011D0008795779567952A95D1F7062B172B1BBD19
:1011E0000ABD8EB585608EBD1F910F9108952CB5F7
:1011F0003DB5C90108956CB57DB580E090E03AE059
:10120000660F771F881F991F3A95D1F720E43FE1B9
:1012100040E050E00E94EB14C90108958EB5887F2C
:101220008EBD08951FBC1EBC1DBC1CBC1BBC1ABCC3
:1012300019BC18BC17BC16BC89B7837C89BF88B79A
:10124000837C88BF8D9A8FB582688FBD8EB5806193
:101250008EBD86B597B58FEF9FEF97BD86BD08957C
:101260000F931F938B0196958795A0E0B0E0BC018A
:10127000CD0120E43FE140E050E00E94B81477BD8A
:1012800066BD86B597B59C01029FC001039F900D76
:10129000129F900D112464E670E00E94D7147BBD6C
:1012A0006ABD8EB581608EBD1F910F9108950F9319
:1012B0001F938B0196958795A0E0B0E0BC01CD010E
:1012C00020E43FE140E050E00E94B81477BD66BDE5
:1012D00086B597B59C01029FC001039F900D129F98
:1012E000900D112464E670E00E94D7147BBD6ABDA6
:1012F0001DBC1CBC1F910F91089526B537B5AC01DC
:10130000429FC001439F900D529F900D112464E6AF
:1013100070E00E94D7147BBD6ABD089596958795AD
:10132000A0E0B0E0BC01CD0120E43FE140E050E0AE
:101330000E94B81477BD66BD1DBC1CBC08951FBCBF
:101340001EBC1DBC1CBC1BBC1ABC19BC18BC17BCE9
:1013500016BC89B7837C89BF88B7837C88BF8D9A88
:101360008FB582688FBD8EB588618EBD86B597B505
:101370008FEF9FEF97BD86BD08950F931F938B014D
:10138000A0E0B0E0BC01CD0120E43FE140E050E04E
:101390000E94B81477BD66BD86B597B59C01029FC3
:1013A000C001039F900D129F900D112464E670E020
:1013B0000E94D7147BBD6ABD8EB581608EBD1F9122
:1013C0000F9108950F931F938B01A0E0B0E0BC0133
:1013D000CD0120E43FE140E050E00E94B81477BD29
:1013E00066BD86B597B59C01029FC001039F900D15
:1013F000129F900D112464E670E00E94D7147BBD0B
:101400006ABD1DBC1CBC1F910F91089526B537B550
:10141000AC01429FC001439F900D529F900D11243B
:1014200064E670E00E94D7147BBD6ABD0895A0E019
:10143000B0E0BC01CD0120E43FE140E050E00E947B
:10144000B81477BD66BD1DBC1CBC08951FBC1EBC76
:101450001DBC1CBC1BBC1ABC19BC18BC17BC16BCE0
:1014600089B7837C89BF88B7837C88BF8E988EB507
:1014700088648EBD89B7806289BF8FB780688FBF4F
:101480001092C20108958AB59BB58FEF9FEF9BBD67
:101490008ABD8EB585608EBD08959093AD01809311
:1014A000AC0108959093AF018093AE0108951F920F
:1014B0000F920FB60F9211242F933F934F935F9388
:1014C0006F937F938F939F93AF93BF93EF93FF930C
:1014D000E091AC01F091AD01309709F00995FF91D1
:1014E000EF91BF91AF919F918F917F916F915F919C
:1014F0004F913F912F910F900FBE0F901F90189515
:101500001F920F920FB60F921124EF92FF920F933A
:101510001F932F933F934F935F936F937F938F937B
:101520009F93AF93BF93EF93FF938091C201882362
:10153000E9F08091C201813019F18091C2018230BD
:1015400039F1FF91EF91BF91AF919F918F917F9171
:101550006F915F914F913F912F911F910F91FF904C
:10156000EF900F900FBE0F901F90189581E0809321
:10157000C2018EB590E489278EBD1DBC1CBCE1CF95
:1015800086B597B59093BA018093B90182E0EFCF09
:1015900086B597B59093BC018093BB011DBC1CBC64
:1015A0008FB780688FBF1092C2018EB580648EBDE8
:1015B0008091B9019091BA01E090BB01F090BC011B
:1015C00000E010E0A0E0B0E0E80EF91E0A1F1B1FCB
:1015D000E092BE01F092BF010093C0011093C101DF
:1015E000A80197017AE0220F331F441F551F7A95F7
:1015F000D1F760E472E48FE090E00E94EB14209356
:10160000B5013093B6014093B7015093B801609192
:10161000B9017091BA0180E090E024E630E040E04A
:1016200050E00E94B814A80197010E94EB14209387
:10163000B1013093B2014093B3015093B401E091F2
:10164000AE01F091AF01309709F47BCF099579CFC6
:10165000EF92FF920F931F931DBC1CBC2AB53BB5A4
:101660002E633A6F3BBD2ABD2EB525602EBD7C0191
:1016700000E010E06CB57DB580E090E0EAE0660F38
:10168000771F881F991FEA95D1F720E43FE140E0DA
:1016900050E00E94EB142E153F054007510750F310
:1016A0008EB5887F8EBD1F910F91FF90EF900895AA
:1016B0001DBC1CBC2AB53BB52E633A6F3BBD2ABD91
:1016C0002EB525602EBD9C0140E050E08CB59DB547
:1016D000A0E0B0E0F7E0880F991FAA1FBB1FFA95A2
:1016E000D1F782179307A407B50780F38EB5887FDB
:1016F0008EBD08951ABA17BA14BA11BA1BBA18BA1D
:1017000015BA12BA19BA16BA13BA10BA80E0089507
:10171000823091F18330C0F08330D1F08430B1F465
:101720006830A0F4413009F465C0442379F421B352
:1017300081E090E002C0880F991F6A95E2F78095DA
:10174000822381BB80E00895813049F181E00895D2
:101750006830E0F7413009F459C04423B9F724B3A5
:1017600081E090E002C0880F991F6A95E2F78095AA
:10177000822384BB80E00895683040F7413011F146
:10178000442321F727B381E090E002C0880F991F1E
:101790006A95E2F78095822387BB80E008956830E0
:1017A000A8F64130D9F0442389F62AB381E090E0CD
:1017B00002C0880F991F6A95E2F7809582238ABB41
:1017C00080E0089527B381E090E002C0880F991F60
:1017D0006A95E2F7282B27BB80E008952AB381E0C1
:1017E00090E002C0880F991F6A95E2F7282B2ABB68
:1017F00080E0089521B381E090E002C0880F991F36
:101800006A95E2F7282B21BB80E0089524B381E09C
:1018100090E002C0880F991F6A95E2F7282B24BB3D
:1018200080E008958230F1F0833070F0833081F0F1
:10183000843061F46F3009F448C0603198F5662354
:1018400029F411BA80E008958130A9F081E008956B
:101850006F3009F43FC06031F0F46623B9F714BA71
:1018600080E008956F30D9F1603170F4662371F72C
:1018700017BA80E008956F3019F16031D0F4662313
:1018800029F71ABA80E00895603FC1F16F3FF1F681
:1018900067BB80E00895603F61F16F3FB9F664BBBC
:1018A00080E00895603F01F16F3F81F661BB80E009
:1018B0000895603F41F16F3F49F66ABB80E00895AB
:1018C0008AB38F608ABB80E0089581B38F6081BB4B
:1018D00080E0089584B38F6084BB80E0089587B36F
:1018E0008F6087BB80E0089581B3806F81BB80E00B
:1018F000089584B3806F84BB80E0089587B3806FC0
:1019000087BB80E008958AB3806F8ABB80E008952A
:10191000823091F18330C0F08330D1F08430B1F463
:101920006830A0F4413009F465C0442379F422B34F
:1019300081E090E002C0880F991F6A95E2F78095D8
:10194000822382BB80E00895813049F181E00895CF
:101950006830E0F7413009F459C04423B9F725B3A2
:1019600081E090E002C0880F991F6A95E2F78095A8
:10197000822385BB80E00895683040F7413011F143
:10198000442321F728B381E090E002C0880F991F1B
:101990006A95E2F78095822388BB80E008956830DD
:1019A000A8F64130D9F0442389F62BB381E090E0CA
:1019B00002C0880F991F6A95E2F7809582238BBB3E
:1019C00080E0089528B381E090E002C0880F991F5D
:1019D0006A95E2F7282B28BB80E008952BB381E0BD
:1019E00090E002C0880F991F6A95E2F7282B2BBB65
:1019F00080E0089522B381E090E002C0880F991F33
:101A00006A95E2F7282B22BB80E0089525B381E098
:101A100090E002C0880F991F6A95E2F7282B25BB3A
:101A200080E00895442399F4823059F18330D0F452
:101A3000813059F46F3009F459C0603108F450C056
:101A4000603F09F476C06F3F51F081E00895413066
:101A5000E1F78230F9F0833058F58130B1F76BBB94
:101A600080E008958330C9F0843079F76F3009F44D
:101A700047C0603148F1603F09F456C06F3F29F715
:101A80001BC06F3009F441C0603120F1603F99F113
:101A90006F3FD9F668BB80E008956F30D9F16031AF
:101AA00070F0603FE1F16F3F81F665BB80E0089523
:101AB0008330D9F3843049F662BB80E00895662311
:101AC00021F615BA80E00895662309F0BECF12BA58
:101AD00080E00895662309F0B8CF18BA80E0089531
:101AE000662309F0B2CF1BBA80E008958BB38F60F4
:101AF0008BBB80E0089588B3806F88BB80E0089539
:101B000082B38F6082BB80E0089588B38F6088BB0A
:101B100080E0089585B38F6085BB80E0089585B32C
:101B2000806F85BB80E0089582B3806F82BB80E0C8
:101B300008958BB3806F8BBB80E00895FA018230EB
:101B400021F18330D0F08330E1F08430C1F468308B
:101B5000B0F420B381E090E0062E02C0880F991FF8
:101B60000A94E2F730E08223932302C0959587958B
:101B70006A95E2F7808380E00895813051F081E03A
:101B800008956830E0F723B3E5CF6830C0F726B397
:101B9000E1CF6830A0F729B3DDCFFB018230B1F08F
:101BA000833040F0833051F0843031F480B380834F
:101BB00080E00895813031F081E0089583B380831F
:101BC00080E0089589B3808380E0089586B38083A0
:101BD00080E00895FB018230B1F0833040F0833023
:101BE00051F0843031F481B3808380E008958130F6
:101BF00031F081E0089584B3808380E008958AB352
:101C0000808380E0089587B3808380E008951F93E8
:101C1000182F87FD21C084E064E041E00E94880C19
:101C200084E063E040E00E94880C84E062E041E0F0
:101C30000E94880C83E0612F41E00E94120D84E035
:101C400062E040E00E94880C84E062E041E00E9493
:101C5000880C80E01F91089581E01F910895EF9214
:101C6000FF920F931F93DF93CF9300D0CDB7DEB7D2
:101C70007C0183E0BE016E5F7F4F0E94EA0D83E02E
:101C800060E00E94120C84E064E040E00E94880C56
:101C900084E063E041E00E94880C84E062E041E07F
:101CA0000E94880C8E010F5F1F4F83E067E0A80140
:101CB0000E949E0D89818823C1F783E0B7010E94AD
:101CC000CD0D83E06A810E94120C0F900F90CF918E
:101CD000DF911F910F91FF90EF9008951F93DF9375
:101CE000CF930F92CDB7DEB7182F83E0BE016F5FA1
:101CF0007F4F0E94EA0D84E064E040E00E94880C7F
:101D000084E063E040E00E94880C84E062E041E00F
:101D10000E94880C83E0612F41E00E94120D84E054
:101D200062E040E00E94880C82E090E00E94280B74
:101D300084E062E041E00E94880C84EF91E00E9420
:101D4000580B83E069810E94120C80E00F90CF91C4
:101D5000DF911F9108951F93CF93DF93EC011881BA
:101D6000112341F117FD1EC084E064E041E00E94B0
:101D7000880C84E063E040E00E94880C84E062E02C
:101D800041E00E94880C83E0612F41E00E94120D27
:101D900084E062E040E00E94880C84E062E041E080
:101DA0000E94880C219684E690E00E94580B1881CE
:101DB0001123C1F680E0DF91CF911F9108955F92CA
:101DC0006F927F928F929F92AF92BF92CF92DF924B
:101DD000EF92FF920F931F935B016C0161157105E8
:101DE0008105910509F474C06624772443015524C4
:101DF000C401B3012AE030E040E050E00E94B81492
:101E00007B018C01C601B5010E94EB143B014C0122
:101E10006E0C7F1C801E911EC601B5012AE030E0C9
:101E200040E050E00E94EB14C901DA015C016D0151
:101E30005394A114B104C104D104D1F6552069F41E
:101E400038C0C401B3012AE030E040E050E00E9415
:101E5000EB14C901DA013C014D01C401B3012AE0D0
:101E600030E040E050E00E94EB14162F105D17FDAB
:101E70001EC084E064E041E00E94880C84E063E0DE
:101E800040E00E94880C84E062E041E00E94880CFF
:101E900083E0612F41E00E94120D84E062E040E0A7
:101EA0000E94880C84E062E041E00E94880C5A9411
:101EB00041F680E01F910F91FF90EF90DF90CF905F
:101EC000BF90AF909F908F907F906F905F9008959C
:101ED00084E064E041E00E94880C84E063E040E03C
:101EE0000E94880C84E062E041E00E94880C83E05C
:101EF00060E341E00E94120D84E062E040E00E9455
:101F0000880C84E062E041E00E94880CD2CF0F93FD
:101F10001F93DF93CF930F92CDB7DEB783E08E018F
:101F20000F5F1F4FB8010E94EA0D84E064E040E0BB
:101F30000E94880C84E063E040E00E94880C84E00A
:101F400062E041E00E94880C83E060E141E00E9491
:101F5000120D84E062E040E00E94880C82E090E094
:101F60000E94280B84E062E041E00E94880C84EF2C
:101F700091E00E94580B83E069810E94120C84E07A
:101F800064E041E00E94880C84E063E040E00E944D
:101F9000880C84E062E041E00E94880C83E060E00D
:101FA00041E00E94120D84E062E040E00E94880C53
:101FB00084E062E041E00E94880C8AE090E00E94A8
:101FC000580B83E0B8010E94EA0D84E064E040E031
:101FD0000E94880C84E063E040E00E94880C84E06A
:101FE00062E041E00E94880C83E060E141E00E94F1
:101FF000120D84E062E040E00E94880C82E090E0F4
:102000000E94280B84E062E041E00E94880C84EF8B
:1020100091E00E94580B83E069810E94120C8AE0D3
:1020200090E00E94580B0F90CF91DF911F910F917C
:1020300008950F931F93DF93CF930F92CDB7DEB721
:102040000E94BB0883E06FEF0E94120C84E064E002
:1020500041E00E94880B84E062E041E00E94880B2E
:1020600084E063E041E00E94880B83E08E010F5F13
:102070001F4FB8010E94EA0D84E064E040E00E9436
:10208000880C84E063E040E00E94880C84E062E019
:1020900041E00E94880C83E062E041E00E94120D62
:1020A00084E062E040E00E94880C82E090E00E94C0
:1020B000280B84E062E041E00E94880C84EF91E00C
:1020C0000E94580B83E069810E94120C83E0B801E2
:1020D0000E94EA0D84E064E040E00E94880C84E005
:1020E00063E040E00E94880C84E062E041E00E94EE
:1020F000880C83E068E341E00E94120D84E062E016
:1021000040E00E94880C82E090E00E94280B84E06E
:1021100062E041E00E94880C84EF91E00E94580B3D
:1021200083E069810E94120C83E0B8010E94EA0DED
:1021300084E064E040E00E94880C84E063E040E0DA
:102140000E94880C84E062E041E00E94880C83E0F9
:102150006DE041E00E94120D84E062E040E00E94E8
:10216000880C82E090E00E94280B84E062E041E06D
:102170000E94880C84EF91E00E94580B83E06981F3
:102180000E94120C83E0B8010E94EA0D84E064E032
:1021900040E00E94880C84E063E040E00E94880CEC
:1021A00084E062E041E00E94880C83E061E041E06D
:1021B0000E94120D84E062E040E00E94880C82E000
:1021C00090E00E94280B84E062E041E00E94880CCD
:1021D00084EF91E00E94580B83E069810E94120C09
:1021E00083E0B8010E94EA0D84E064E040E00E94D0
:1021F000880C84E063E040E00E94880C84E062E0A8
:1022000041E00E94880C83E066E041E00E94120DEC
:1022100084E062E040E00E94880C82E090E00E944E
:10222000280B84E062E041E00E94880C84EF91E09A
:102230000E94580B83E069810E94120C80E00F908D
:10224000CF91DF911F910F9108952F923F924F925E
:102250005F926F927F928F929F92AF92BF92CF9236
:10226000DF92EF92FF920F931F937B018C01611518
:1022700071058105910509F4A3C097FDC0C0262E04
:102280004F2C302E512EC801B7012AE030E040E03B
:1022900050E00E940D15C901DA013C014D016114A5
:1022A00071048104910489F181E0A82EB12CC12C24
:1022B000D12C0DC0AC01CB01DA019C01AD0159015B
:1022C0006A01E114F1040105110509F461C0C401BA
:1022D000B3012AE030E040E050E00E940D157901A2
:1022E0008A0137014801C601B5012AE030E040E02B
:1022F00050E00E94B814A114B104C104D104D1F675
:1023000021E030E040E050E0DACF91E0A92EB12C9E
:10231000C12CD12C622D742D832D952DA6019501F4
:102320000E94EB14CA01B9012AE030E040E050E01D
:102330000E94EB14162F105D17FD1EC084E064E0B0
:1023400041E00E94880C84E063E040E00E94880C39
:1023500084E062E041E00E94880C83E0612F41E06C
:102360000E94120D84E062E040E00E94880C84E04C
:1023700062E041E00E94880CC601B5012AE030E02D
:1023800040E050E00E94EB14C901DA015C016D01EC
:10239000A114B104C104D10409F0BCCF80E01F91A5
:1023A0000F91FF90EF90DF90CF90BF90AF909F90F4
:1023B0008F907F906F905F904F903F902F900895F7
:1023C00084E064E041E00E94880C84E063E040E047
:1023D0000E94880C84E062E041E00E94880C83E067
:1023E00060E341E00E94120D84E062E040E00E9460
:1023F000880C84E062E041E00E94880CCFCF109509
:102400000095F094E094E11CF11C011D111D2E2C8F
:102410004F2C302E512E84E064E041E00E94880C65
:1024200084E063E040E00E94880C84E062E041E0E8
:102430000E94880C83E06DE241E00E94120D84E06E
:1024400062E040E00E94880C84E062E041E00E948B
:10245000880C19CF5F926F927F928F929F92AF926A
:10246000BF92CF92DF92EF92FF920F931F93DF9371
:10247000CF9300D000D0CDB7DEB77B018C010E9496
:10248000AB035B016C010E944D039B01AC01C801D1
:10249000B7010E94950169837A838B839C8320E036
:1024A00030E040E050E00E941D0388230CF4D4C0CB
:1024B000C601B5010E94251184E064E041E00E945C
:1024C000880C84E063E040E00E94880C84E062E0D5
:1024D00041E00E94880C83E06EE241E00E94120D10
:1024E00084E062E040E00E94880C84E062E041E029
:1024F0000E94880C69817A818B819C810E94AB0348
:102500000E944D039B01AC0169817A818B819C8182
:102510000E94ED02882309F4B7C0E980FA800B819C
:102520001C8121E0622E712C812C912C5524539416
:1025300018C00E94AB035B016C01C401B3012AE027
:1025400030E040E050E00E94B8143B014C01C6016D
:10255000B5010E944D03A80197010E94ED02882356
:10256000F1F1C801B70120E030E040E251E40E94FF
:10257000F3017B018C015520E1F20E94AB035B016A
:102580006C012AE030E040E050E00E940D1561153A
:1025900071058105910511F05524CFCF84E064E0E9
:1025A00041E00E94880C84E063E040E00E94880CD7
:1025B00084E062E041E00E94880C83E060E341E057
:1025C0000E94120D84E062E040E00E94880C84E0EA
:1025D00062E041E00E94880C55245394AECF80E025
:1025E00068168AEC78068AE988068BE3980618F163
:1025F00069817A818B819C8120E23CEB4EEB5CE42B
:102600000E94F3010E94AB030E94251180E00F900D
:102610000F900F900F90CF91DF911F910F91FF902E
:10262000EF90DF90CF90BF90AF909F908F907F9072
:102630006F905F900895C401B3010E94FF039B0156
:10264000AC0169817A818B819C810E94F3010E9497
:10265000AB030E942511DACFA114B104C104D10447
:1026600079F060E070E080E090E029813A814B8170
:102670005C810E94950169837A838B839C8318CF48
:102680008DE20E94070EEDCF20E030E040E85FE3EE
:10269000D8CF1F93DF93CF930F92CDB7DEB7182F0C
:1026A000662349F4803108F441C081E00F90CF9156
:1026B000DF911F9108956130C1F78031B0F783E059
:1026C000BE016F5F7F4F0E94EA0D84E064E040E04E
:1026D0000E94880C84E063E040E00E94880C84E063
:1026E00062E041E00E94880C105483E0612F41E0D9
:1026F0000E94120D84E062E040E00E94880C82E0BB
:1027000090E00E94280B84E062E041E00E94880C87
:1027100084EF91E00E94580B83E069810E94120CC3
:1027200080E00F90CF91DF911F91089583E0BE016B
:102730006F5F7F4F0E94EA0D84E064E040E00E94FA
:10274000880C84E063E040E00E94880C84E062E052
:1027500041E00E94880C1058C8CF9F92AF92BF9260
:10276000CF92DF92EF92FF920F931F93DF93CF935D
:102770000F92CDB7DEB781E0898399249A94AA2479
:10278000BB246E010894C11CD11C0A2D81E06A2D66
:1027900040E00E94880C7501EE0CFF1CEE0CFF1C43
:1027A00087E991E0E80EF91E14E081E0612FA601AF
:1027B0000E949E0D8981882371F4F701908081E049
:1027C000612FA6010E949E0D89818823C1F38AE0B2
:1027D00090E00E94280B1F5F0894E11CF11C183048
:1027E00021F781E0602F41E00E94880C0894A11C31
:1027F000B11CF4E0AF16B10441F6892D0F90CF91D2
:10280000DF911F910F91FF90EF90DF90CF90BF90DD
:10281000AF909F90089581E06FE00E94120C81E0DC
:102820006FEF40E00E94120D80E00895DF92EF927A
:10283000FF920F931F930E947A0B0E946D060E94D5
:1028400019100E940B140E94160700E0EE24DD24EC
:102850000E94AD13F82E1091B001112371F11334C1
:1028600009F446C0123409F449C01F3409F44AC0BF
:10287000143409F44BC0133509F44DC0113509F473
:102880005CC0173509F45EC0153409F460C01C340F
:1028900009F462C0123509F463C0183409F03FC06E
:1028A000002309F061C01092B00100E00E94AD1356
:1028B000F82E1091B001112391F61092B001003161
:1028C00038F281E4F81659F08DE3F81609F6E016AF
:1028D00008F0BECF88E10E946E0EE394B9CF8FE07E
:1028E0008E1508F0B5CF8CE10E946E0EEA94B0CF41
:1028F00081E00E946E0EEE24DD24D5CF8DE00E9493
:102900006E0EDBCF8CE00E946E0ED7CF0E94870F39
:102910000150EA94D2CF80EC0E946E0ECECF812F70
:102920000E94070EDD2011F40F5FE3941D3329F69A
:102930008FE0E82EDD24D394C0CF80E690E00E94A3
:10294000AB0EBBCF81E790E00E94AB0EB6CF82E822
:1029500090E00E94AB0EB1CF88E10E946E0EADCF29
:102960008CE10E946E0EA9CF82E00E946E0EA5CF70
:10297000629FD001739FF001829FE00DF11D649F63
:10298000E00DF11D929FF00D839FF00D749FF00DEF
:10299000659FF00D9927729FB00DE11DF91F639F90
:1029A000B00DE11DF91FBD01CF0111240895AA1B2F
:1029B000BB1B51E107C0AA1FBB1FA617B70710F02A
:1029C000A61BB70B881F991F5A95A9F7809590955C
:1029D000BC01CD010895A1E21A2EAA1BBB1BFD016B
:1029E0000DC0AA1FBB1FEE1FFF1FA217B307E407EE
:1029F000F50720F0A21BB30BE40BF50B661F771F46
:102A0000881F991F1A9469F7609570958095909525
:102A10009B01AC01BD01CF01089597FB092E05264E
:102A20000ED057FD04D0D7DF0AD0001C38F45095E3
:102A30004095309521953F4F4F4F5F4F0895F6F7E2
:102A400090958095709561957F4F8F4F9F4F08951A
:102A50002F923F924F925F926F927F928F929F92AE
:102A6000AF92BF92CF92DF92EF92FF920F931F939C
:102A7000CF93DF93CDB7DEB7CA1BDB0B0FB6F8944D
:102A8000DEBF0FBECDBF09942A88398848885F848D
:102A90006E847D848C849B84AA84B984C884DF80FE
:102AA000EE80FD800C811B81AA81B981CE0FD11DE2
:102AB0000FB6F894DEBF0FBECDBFED010895F894B8
:022AC000FFCF46
:102AC2004C4344204C696D697420457863656564A4
:102AD200005661726961626C654F766572666C6FF1
:102AE200770053796E746178204572726F720000BC
:102AF20000000000000000000102020303030304BF
:102B0200040404040404040505050505050505057A
:102B1200050505050505050606060606060606065A
:102B22000606060606060606060606060606060643
:102B3200060606060606060707070707070707072A
:102B42000707070707070707070707070707070713
:102B52000707070707070707070707070707070703
:102B620007070707070707070707070707070707F3
:102B720007070707070707080808080808080808DA
:102B820008080808080808080808080808080808C3
:102B920008080808080808080808080808080808B3
:102BA20008080808080808080808080808080808A3
:102BB2000808080808080808080808080808080893
:102BC2000808080808080808080808080808080883
:102BD2000808080808080808080808080808080873
:102BE2000808080808080808080808080808080863
:102BF20008080808080808373431413835323039B6
:082C020036333D2F782D2B0025
:00000001FF
