:100000000C94AB000C94C8000C94C8000C94C8006D
:100010000C94C8000C94C8000C94B70B0C948E0B75
:100020000C94C8000C94C8000C94C8000C94E50C07
:100030000C94C8000C947E090C9452090C94C800CE
:100040000C9414100C94C8000C94C8000C94C800B4
:100050000C94C8006E616E00696E660000407A10F4
:10006000F35A00A0724E18090010A5D4E80000E869
:100070007648170000E40B54020000CA9A3B0000C7
:1000800000E1F505000080969800000040420F0056
:100090000000A08601000000102700000000E80317
:1000A000000000006400000000000A0000000000E2
:1000B0000100000000002C76D888DC674F0823DFA1
:1000C000C1DFAE59E1B1B796E5E3E453C63AE65174
:1000D000997696E8E6C28426EB898C9B62ED407C9B
:1000E0006FFCEFBC9C9F40F2BAA56FA5F490055A37
:1000F0002AF75C936B6CF9676DC11BFCE0E40D475C
:10010000FEF520E6B500D0ED902E0300943577057E
:100110000080841E080000204E0A000000C80C3336
:100120003333330F986E12831141EF8D2114893BC5
:10013000E65516CFFEE6DB18D1844B381BF77C1D45
:10014000901DA4BBE424203284725E228100C9F198
:1001500024ECA1E53D2711241FBECFE5D8E0DEBF8A
:10016000CDBF11E0A0E6B0E0E8EEF0E402C00590FB
:100170000D92AC3AB107D9F712E0ACEAB1E001C098
:100180001D92AB3DB107E1F70E94AE1A0C947220AC
:100190000C940000EF92FF920F931F937B018C0150
:1001A00020E030E040E05FE40E94D60488238CF039
:1001B000C801B70120E030E040E05FE40E94420265
:1001C0000E9494059B01AC012050304040405048B3
:1001D00006C0C801B7010E9494059B01AC01B9019A
:1001E000CA011F910F91FF90EF900895A0E0B0E039
:1001F000ECEFF0E00C94C31EDC012B01FA019C91A2
:10020000923008F439C1EB018881823008F433C19F
:10021000943069F4843009F02FC111969C911197A4
:100220008981981709F428C1AFE8B0E025C184306E
:1002300009F421C18230A9F4923009F01DC19A015C
:10024000AD0188E0EA010990AE01E90109929E0141
:100250008150C1F7E201898111969C9189238183A4
:1002600008C1923009F407C112962D903C90139763
:10027000EB018A819B811496AD90BD90CD90DC906E
:100280001797EC80FD800E811F819101281B390B8F
:10029000B90137FF04C066277727621B730B6032F2
:1002A00071050CF061C0121613066CF53701480198
:1002B000062E04C096948794779467940A94D2F794
:1002C00021E030E040E050E004C0220F331F441F23
:1002D000551F6A95D2F721503040404050402E21A2
:1002E0003F2140235123211531054105510521F0BE
:1002F00021E030E040E050E079018A01E628F7286B
:10030000082919293CC0232BD1F1260E371E3501AF
:100310004601062E04C096948794779467940A94B5
:10032000D2F721E030E040E050E004C0220F331F5C
:10033000441F551F6A95D2F721503040404050402D
:100340002A213B214C215D21211531054105510513
:1003500021F021E030E040E050E059016A01A62898
:10036000B728C828D9280BC0821593052CF01C018A
:10037000AA24BB24650103C0EE24FF248701119643
:100380009C91D20111968C91981709F445C099233C
:1003900039F0A80197012A193B094C095D0906C0EB
:1003A000A60195012E193F09400B510B57FD08C0BE
:1003B00011823382228224833583468357831DC072
:1003C00081E081833382228288279927DC01821B86
:1003D000930BA40BB50B84839583A683B7830DC0C1
:1003E000220F331F441F551F2483358346835783B1
:1003F0008281938101979383828324813581468111
:100400005781DA01C9010197A109B1098F5F9F4F97
:10041000AF4FBF4328F30BC0918333822282EA0C93
:10042000FB1C0C1D1D1DE482F5820683178383E0EF
:100430008083248135814681578157FF1AC0C901C5
:10044000AA2797FDA095BA2F81709070A070B07008
:100450005695479537952795822B932BA42BB52B33
:1004600084839583A683B783828193810196938346
:100470008283DF0101C0D201CD01CDB7DEB7E2E159
:100480000C94DF1EA0E2B0E0E8E4F2E00C94CF1E92
:1004900069837A838B839C832D833E834F83588724
:1004A000E9E0EE2EF12CEC0EFD1ECE010196B70117
:1004B0000E9485078E010F5E1F4FCE010596B80181
:1004C0000E9485078A8991E089278A8BC701B80134
:1004D000AE01475E5F4F0E94F6000E94B006A096F4
:1004E000E6E00C94EB1EA0E2B0E0E9E7F2E00C9449
:1004F000CF1E69837A838B839C832D833E834F83B6
:100500005887F9E0EF2EF12CEC0EFD1ECE0101967E
:10051000B7010E9485078E010F5E1F4FCE01059621
:10052000B8010E948507C701B801AE01475E5F4F61
:100530000E94F6000E94B006A096E6E00C94EB1E26
:10054000A0E2B0E0E6EAF2E00C94C31E69837A838D
:100550008B839C832D833E834F835887CE010196E6
:10056000BE01675F7F4F0E948507CE010596BE01E1
:100570006F5E7F4F0E9485079985923088F0898948
:100580008230C8F0943019F4823051F404C08430C1
:1005900029F4923081F48FE890E0C6C0923049F49B
:1005A00020E09A858A89981321E02A87CE0109964E
:1005B000BBC0823049F420E09A858A89981321E0F3
:1005C0002A8BCE014196B0C02D843E844F8458883A
:1005D0006D887E888F88988CEE24FF248701AA245A
:1005E000BB24650140E050E060E070E0E0E0F0E056
:1005F000C10181709070892BE9F0E60CF71C081D91
:10060000191D9A01AB012A0D3B1D4C1D5D1D80E09B
:1006100090E0A0E0B0E0E614F7040805190520F426
:1006200081E090E0A0E0B0E0BA01A901480F591FB5
:100630006A1F7B1FAA0CBB1CCC1CDD1C97FE08C0CC
:1006400081E090E0A0E0B0E0A82AB92ACA2ADB2A1B
:100650003196E032F10549F0660C771C881C991C34
:100660005694479437942794C3CFFA85EA892B8907
:100670003C898B859C85280F391F2E5F3F4F17C003
:10068000CA0181709070892B61F016950795F794D7
:10069000E79480E090E0A0E0B0E8E82AF92A0A2B8D
:1006A0001B2B76956795579547952F5F3F4F77FDA5
:1006B000E7CF0CC0440F551F661F771F17FD416021
:1006C000EE0CFF1C001F111F21503040403090E005
:1006D000590790E0690790E4790760F32B8F3C8F0E
:1006E000DB01CA018F779070A070B07080349105E3
:1006F000A105B10561F447FD0AC0E114F10401054B
:10070000110529F0405C5F4F6F4F7F4F40781A8E84
:10071000FE1711F081E08A8F4D8F5E8F6F8F78A367
:1007200083E0898FCE0149960E94B006A096E2E14F
:100730000C94DF1EA8E1B0E0E0EAF3E00C94CB1EDD
:1007400069837A838B839C832D833E834F83588771
:10075000B9E0EB2EF12CEC0EFD1ECE010196B70197
:100760000E9485078E010F5E1F4FCE010596B801CE
:100770000E9485072985223008F47EC039893230ED
:1007800010F4B8017CC08A859A8989278A87243029
:1007900011F0223031F4231709F06EC06FE870E0D9
:1007A0006EC0343039F41D861E861F86188A1C865A
:1007B0001B8604C0323021F484E08987B7015FC012
:1007C0002B853C858B899C89281B390B3C872B8783
:1007D000ED84FE840F851889AD88BE88CF88D88CBB
:1007E000EA14FB040C051D0540F4EE0CFF1C001F71
:1007F000111F215030403C872B8720E030E040E043
:1008000050E080E090E0A0E0B0E460E070E0EA1446
:10081000FB040C051D0540F0282B392B4A2B5B2BC4
:10082000EA18FB080C091D09B695A79597958795B9
:10083000EE0CFF1C001F111F6F5F7F4F6F317105A2
:1008400031F7DA01C9018F779070A070B0708034F1
:100850009105A105B10561F427FD0AC0E114F10479
:100860000105110529F0205C3F4F4F4F5F4F207865
:100870002D873E874F87588BBE01675F7F4FCB0127
:100880000E94B0066896EAE00C94E71EA8E1B0E08A
:10089000ECE4F4E00C94CF1E69837A838B839C8311
:1008A0002D833E834F83588789E0E82EF12CEC0E90
:1008B000FD1ECE010196B7010E9485078E010F5ED5
:1008C0001F4FCE010596B8010E94850789858230A9
:1008D00040F08989823028F0C701B8010E94FD07E5
:1008E00001C081E06896E6E00C94EB1EA8E1B0E060
:1008F000ECE7F4E00C94CF1E69837A838B839C83AE
:100900002D833E834F83588789E0E82EF12CEC0E2F
:10091000FD1ECE010196B7010E9485078E010F5E74
:100920001F4FCE010596B8010E9485078985823048
:1009300040F08989823028F0C701B8010E94FD0784
:1009400001C081E06896E6E00C94EB1EA8E1B0E0FF
:10095000ECEAF4E00C94CF1E69837A838B839C834A
:100960002D833E834F83588789E0E82EF12CEC0ECF
:10097000FD1ECE010196B7010E9485078E010F5E14
:100980001F4FCE010596B8010E94850789858230E8
:1009900040F08989823028F0C701B8010E94FD0724
:1009A00001C08FEF6896E6E00C94EB1EA8E1B0E082
:1009B000ECEDF4E00C94CF1E69837A838B839C83E7
:1009C0002D833E834F83588789E0E82EF12CEC0E6F
:1009D000FD1ECE010196B7010E9485078E010F5EB4
:1009E0001F4FCE010596B8010E9485078985823088
:1009F00040F08989823028F0C701B8010E94FD07C4
:100A000001C08FEF6896E6E00C94EB1EA8E1B0E021
:100A1000ECE0F5E00C94CF1E69837A838B839C8392
:100A20002D833E834F83588789E0E82EF12CEC0E0E
:100A3000FD1ECE010196B7010E9485078E010F5E53
:100A40001F4FCE010596B8010E9485078985823027
:100A500040F08989823028F0C701B8010E94FD0763
:100A600001C081E06896E6E00C94EB1EA8E0B0E0DF
:100A7000ECE3F5E00C94CC1E9B01AC0183E0898390
:100A8000DA01C9018827B7FD83959927AA27BB27D3
:100A9000B82E211531054105510519F482E08983ED
:100AA0003AC08823A9F0203080E0380780E048076A
:100AB00080E8580729F460E070E080E09FEC30C0E7
:100AC000EE24FF248701E21AF30A040B150B02C07F
:100AD00079018A018EE1C82ED12CDC82CB82ED8295
:100AE000FE820F831887C801B7010E946106019733
:100AF0001816190684F4082E04C0EE0CFF1C001F03
:100B0000111F0A94D2F7ED82FE820F831887C81A4C
:100B1000D90ADC82CB82BA82CE0101960E94B0064D
:100B20002896E9E00C94E81EACE0B0E0EAE9F5E0D4
:100B30000C94D31E69837A838B839C83CE010196A8
:100B4000BE016B5F7F4F0E9485078D81823061F10E
:100B5000823050F1843021F48E81882351F12EC0EF
:100B60002F81388537FD20C06E812F3131051CF073
:100B70006623F9F023C08EE190E0821B930B298558
:100B80003A854B855C8504C05695479537952795E2
:100B90008A95D2F76623B1F050954095309521950E
:100BA0003F4F4F4F5F4F0EC020E030E040E050E03D
:100BB00009C02FEF3FEF4FEF5FE704C020E030E0C8
:100BC00040E050E8B901CA012C96E2E00C94EF1E17
:100BD000A8E0B0E0EEEEF5E00C94CB1E7B018C01BA
:100BE000611571058105910519F482E0898360C062
:100BF00083E089838EE1C82ED12CDC82CB82ED820A
:100C0000FE820F831887C801B7010E946106FC01AC
:100C10003197F7FF3BC0222733272E1B3F0B57018D
:100C20006801022E04C0D694C794B794A7940A947E
:100C3000D2F740E050E060E070E081E090E0A0E0BA
:100C4000B0E004C0880F991FAA1FBB1F2A95D2F7D6
:100C50000197A109B1098E219F21A023B1230097FB
:100C6000A105B10521F041E050E060E070E04A29C3
:100C70005B296C297D294D835E836F8378878EE1A4
:100C800090E08E1B9F0B9C838B8312C0309781F06A
:100C90000E2E04C0EE0CFF1C001F111F0A94D2F789
:100CA000ED82FE820F831887CE1ADF0ADC82CB82A8
:100CB0001A82CE0101960E94B0062896EAE00C94B2
:100CC000E71EEF92FF920F931F937B018C0180E050
:100CD000E81680E0F80681E0080780E0180788F44D
:100CE0008FEFE816F1040105110531F028F088E0D6
:100CF00090E0A0E0B0E017C080E090E0A0E0B0E0BD
:100D000012C080E0E81680E0F80680E0080781E085
:100D1000180728F088E190E0A0E0B0E004C080E18E
:100D200090E0A0E0B0E020E230E040E050E0281B9E
:100D3000390B4A0B5B0B04C016950795F794E794A3
:100D40008A95D2F7F701E956FF4F8081281B3109B8
:100D500041095109C9011F910F91FF90EF9008952A
:100D6000DF92EF92FF920F931F93FC01E480F580D6
:100D700006811781D1808081823048F480E090E044
:100D8000A0E1B0E0E82AF92A0A2B1B2BA5C0843089
:100D900009F49FC0823021F4EE24FF24870105C0AE
:100DA000E114F1040105110519F4E0E0F0E096C04A
:100DB000628173819FEF623879070CF05BC022E893
:100DC0003FEF261B370B2A3131052CF020E030E0B5
:100DD00040E050E02AC0B801A701022E04C0769579
:100DE0006795579547950A94D2F781E090E0A0E087
:100DF000B0E004C0880F991FAA1FBB1F2A95D2F725
:100E00000197A109B1098E219F21A023B123009749
:100E1000A105B10521F081E090E0A0E0B0E09A01E9
:100E2000AB01282B392B4A2B5B2BDA01C9018F77B9
:100E30009070A070B07080349105A105B10539F4AF
:100E400027FF09C0205C3F4F4F4F5F4F04C0215C1C
:100E50003F4F4F4F5F4FE0E0F0E02030A0E03A0717
:100E6000A0E04A07A0E45A0710F0E1E0F0E07901C1
:100E70008A0127C06038710564F5FB01E158FF4F16
:100E8000D801C7018F779070A070B0708034910541
:100E9000A105B10539F4E7FE0DC080E490E0A0E0C3
:100EA000B0E004C08FE390E0A0E0B0E0E80EF91EEF
:100EB0000A1F1B1F17FF05C016950795F794E794A7
:100EC000319687E016950795F794E7948A95D1F7C0
:100ED00005C0EE24FF248701EFEFF0E06E2F679549
:100EE00066276795902F9F77D794DD24D7948E2F10
:100EF0008695492F462B582F5D29B701CA011F91AE
:100F00000F91FF90EF90DF900895FC01DB0140818D
:100F100051812281622F6F7770E0221F2227221FCA
:100F20009381892F880F822B282F30E0991F9927D2
:100F3000991F11969C93119721153105A9F541151B
:100F400051056105710511F482E037C082E89FEF19
:100F500013969C938E9312979A01AB0167E0220F30
:100F6000331F441F551F6A95D1F783E08C930DC042
:100F7000220F331F441F551F12968D919C9113977A
:100F8000019713969C938E931297203080E0380738
:100F900080E0480780E4580758F314962D933D935A
:100FA0004D935C93179708952F3F310579F44115C0
:100FB00051056105710519F484E08C93089564FF6F
:100FC00003C081E08C9312C01C9210C02F57304098
:100FD00013963C932E93129783E08C9387E0440FF3
:100FE000551F661F771F8A95D1F7706414964D932D
:100FF0005D936D937C93179708951F93DC01FB011C
:101000009C91923008F447C08081823008F443C03C
:10101000943051F411961C91843099F58181682F98
:1010200070E0611B71093FC0843021F0923031F4CF
:101030008230B9F18181882389F12DC011961C91EC
:1010400011978230F1F081811817D9F412962D9101
:101050003C911397828193818217930794F028170C
:101060003907BCF014968D919D910D90BC91A02DE7
:101070002481358146815781281739074A075B0744
:1010800018F4112341F00AC082179307A407B5078B
:1010900040F4112319F061E070E005C06FEF7FEFBD
:1010A00002C060E070E0CB011F9108951CB81BB82E
:1010B0001AB810BC19B810BC8AB188618AB98FEC13
:1010C00089B980B5866880BD08951CB81BB81AB868
:1010D00010BC19B810BC08955D9BFECF8CB95D9A09
:1010E00008955F9BFECF5F9A8CB108955F926F92D7
:1010F0007F928F929F92AF92BF92CF92DF92EF92A8
:10110000FF920F931F935B016C01611571058105BF
:10111000910531F45D9BFECF80E38CB95D9A56C09A
:1011200097FF0DC05D9BFECFD094C094B094A09467
:10113000A11CB11CC11CD11C8DE28CB95D9A662426
:10114000772443015524C401B3012AE030E040E094
:1011500050E00E94401E7B018C01C601B5010E9437
:10116000A81E3B014C016E0C7F1C801E911EC60107
:10117000B5012AE030E040E050E00E94A81EC9011D
:10118000DA015C016D015394A114B104C104D104CE
:10119000D1F61AC05D9BFECFC401B3012AE030E056
:1011A00040E050E00E94A81E605D6CB95D9AC401E9
:1011B000B3012AE030E040E050E00E94A81EC901DF
:1011C000DA013C014D015A94552021F71F910F91EE
:1011D000FF90EF90DF90CF90BF90AF909F908F9057
:1011E0007F906F905F900895AF92BF92CF92DF9201
:1011F000EF92FF920F931F937B018C010E94940545
:101200005B016C010E947608C601B5010E9436059B
:101210009B01AC01C801B7010E9442027B018C0115
:1012200020E030E040E050E00E940605882354F4BE
:1012300060E070E080E090E0A80197010E94420227
:101240007B018C015D9BFECF8EE28CB95D9AC8015B
:10125000B70120E030E048EC52E40E94A0020E9476
:1012600094050E9476081F910F91FF90EF90DF90F8
:10127000CF90BF90AF900895569A9FB790689FBF48
:101280008093CA020895579A8FB780688FBF0895D8
:101290009093AD018093AC0108959093AF0180933A
:1012A000AE0108951F920F920FB60F9211242F9343
:1012B0003F934F935F936F937F938F939F93AF93DE
:1012C000BF93EF93FF93E091AC01F091AD013097A4
:1012D00009F009958091CA028CB9FF91EF91BF91F5
:1012E000AF919F918F917F916F915F914F913F91BE
:1012F0002F910F900FBE0F901F9018951F920F9275
:101300000FB60F9211242F933F934F935F936F93D8
:101310007F938F939F93AF93BF93EF93FF938CB182
:101320008093BD02E091AE01F091AF01309709F0DA
:101330000995FF91EF91BF91AF919F918F917F910F
:101340006F915F914F913F912F910F900FBE0F9032
:101350001F9018951FBC1EBC1DBC1CBC1BBC1ABC1E
:1013600019BC18BC17BC16BC89B7837C89BF88B769
:10137000837C88BF8EB588608EBD89B7806189BF48
:101380008FB780688FBF08950F931F931DBC1CBC3F
:101390000AB51BB5A0E0B0E0BC01CD0120E43FE1FF
:1013A00040E050E00E94401E2AE096958795779590
:1013B00067952A95D1F7062B172B1BBD0ABD8EB555
:1013C00085608EBD1F910F910895EF92FF920F934C
:1013D0001F938C0105960E94C409780100E010E07B
:1013E0006CB57DB580E090E03AE0660F771F881F0E
:1013F000991F3A95D1F720E43FE140E050E00E9488
:10140000861E2E153F054007510750F38EB5887F85
:101410008EBD1F910F91FF90EF9008950F931F9332
:101420008C0188E090E20E94C409980140E050E0FD
:101430008CB59DB5A0E0B0E067E0880F991FAA1FAA
:10144000BB1F6A95D1F782179307A407B50780F3EE
:101450008EB5887F8EBD1F910F9108952CB53DB537
:10146000C90108956CB57DB580E090E0EAE0660FB3
:10147000771F881F991FEA95D1F720E43FE140E0EC
:1014800050E00E94861EC90108958EB5887F8EBDEA
:1014900008951FBC1EBC1DBC1CBC1BBC1ABC19BCC7
:1014A00018BC17BC16BC89B7837C89BF88B7837CFE
:1014B00088BF8D9A8FB582688FBD8EB580618EBDD5
:1014C00086B597B58FEF9FEF97BD86BD08950F93B3
:1014D0001F938B0196958795A0E0B0E0BC01CD01EC
:1014E00020E43FE140E050E00E94401E77BD66BD31
:1014F00086B597B59C01029FC001039F900D129F76
:10150000900D112464E670E00E945F1E7BBD6ABDF1
:101510008EB581608EBD1F910F9108950F931F931B
:101520008B0196958795A0E0B0E0BC01CD0120E449
:101530003FE140E050E00E94401E77BD66BD86B5A9
:1015400097B59C01029FC001039F900D129F900DC3
:10155000112464E670E00E945F1E7BBD6ABD1DBC65
:101560001CBC1F910F91089526B537B5AC01429F61
:10157000C001439F900D529F900D112464E670E0CE
:101580000E945F1E7BBD6ABD089596958795A0E079
:10159000B0E0BC01CD0120E43FE140E050E00E941A
:1015A000401E77BD66BD1DBC1CBC08951FBC1EBC83
:1015B0001DBC1CBC1BBC1ABC19BC18BC17BC16BC7F
:1015C00089B7837C89BF88B7837C88BF8D9A8FB5A4
:1015D00082688FBD8EB588618EBD86B597B58FEF59
:1015E0009FEF97BD86BD08950F931F938B01A0E0D9
:1015F000B0E0BC01CD0120E43FE140E050E00E94BA
:10160000401E77BD66BD86B597B59C01029FC0019F
:10161000039F900D129F900D112464E670E00E94CC
:101620005F1E7BBD6ABD8EB581608EBD1F910F911F
:1016300008950F931F938B01A0E0B0E0BC01CD0192
:1016400020E43FE140E050E00E94401E77BD66BDCF
:1016500086B597B59C01029FC001039F900D129F14
:10166000900D112464E670E00E945F1E7BBD6ABD90
:101670001DBC1CBC1F910F91089526B537B5AC0158
:10168000429FC001439F900D529F900D112464E62C
:1016900070E00E945F1E7BBD6ABD0895A0E0B0E0CF
:1016A000BC01CD0120E43FE140E050E00E94401E3B
:1016B00077BD66BD1DBC1CBC08951FBC1EBC1DBCF7
:1016C0001CBC1BBC1ABC19BC18BC17BC16BC89B707
:1016D000837C89BF88B7837C88BF8E988EB58864E9
:1016E0008EBD89B7806289BF8FB780688FBF109227
:1016F000CF0208958AB59BB58FEF9FEF9BBD8ABD42
:101700008EB585608EBD08959093B1018093B00130
:1017100008959093B3018093B20108951F920F92A0
:101720000FB60F9211242F933F934F935F936F93B4
:101730007F938F939F93AF93BF93EF93FF93E0912A
:10174000B001F091B101309709F00995FF91EF9147
:10175000BF91AF919F918F917F916F915F914F91C9
:101760003F912F910F900FBE0F901F9018951F92D1
:101770000F920FB60F921124EF92FF920F931F93C7
:101780002F933F934F935F936F937F938F939F9389
:10179000AF93BF93EF93FF938091CF02882311F40F
:1017A00081E00BC08091CF02813081F486B597B57E
:1017B0009093C7028093C60282E08093CF028EB5D9
:1017C00090E489278EBD1DBC1CBC63C08091CF02F4
:1017D000823009F05EC086B597B59093C9028093B8
:1017E000C8021DBC1CBC8FB780688FBF1092CF028F
:1017F0008EB580648EBD8091C6029091C702E09044
:10180000C802F090C90200E010E0A0E0B0E0E80EED
:10181000F91E0A1F1B1FE092CB02F092CC0200932C
:10182000CD021093CE02A80197018AE0220F331F48
:10183000441F551F8A95D1F760E472E48FE090E071
:101840000E94861E2093C2023093C3024093C402BA
:101850005093C5026091C6027091C70280E090E08B
:1018600024E630E040E050E00E94401EA8019701CD
:101870000E94861E2093BE023093BF024093C00296
:101880005093C102E091B201F091B301309709F099
:101890000995FF91EF91BF91AF919F918F917F91AA
:1018A0006F915F914F913F912F911F910F91FF90F9
:1018B000EF900F900FBE0F901F90189513BE12BEA1
:1018C0001CBE89B78C7F89BF88B78C7F88BFBB9AC5
:1018D00083B7806183BF89B7816089BF8CB78FEF81
:1018E0008CBF8FB780688FBF0895AF92BF92CF92A1
:1018F000DF92EF92FF920F931F937C019093D1029E
:101900008093D00200E010E0C801B70128EE33E078
:1019100040E050E00E94401E5B016C01FFE0D69465
:10192000C794B794A794FA95D1F7C601B501EFE033
:10193000660F771F881F991FEA95D1F70E94861EB0
:10194000E21AF30A040B150BC801B70120E038EEC8
:1019500043E050E00E94401E2FE0969587957795D2
:1019600067952A95D1F7619562BFA092B50183B7BB
:10197000856083BF1F910F91FF90EF90DF90CF9014
:10198000BF90AF90089583B78A7F83BF089513BE39
:1019900012BE1CBE89B78C7F89BF88B78C7F88BF79
:1019A000BB9A83B7886683BF0895982F80E064E66A
:1019B00070E00E94731E6CBF83B7836083BF08957D
:1019C0009093B8018093B70108951F920F920FB6BC
:1019D0000F921124EF92FF920F931F932F933F9337
:1019E0004F935F936F937F938F939F93AF93BF9327
:1019F000EF93FF932091B6012F5F2093B60130E063
:101A00008091B50190E001962817390781F5E090A3
:101A1000D002F090D10200E010E0C801B70128EE3A
:101A200033E040E050E00E94401E607070780E94F9
:101A3000861EE21AF30A040B150BC801B70120E059
:101A400038EE43E050E00E94401EAFE09695879547
:101A500077956795AA95D1F7619562BF1092B60107
:101A6000E091B701F091B801309709F00995FF9125
:101A7000EF91BF91AF919F918F917F916F915F9106
:101A80004F913F912F911F910F91FF90EF900F90E9
:101A90000FBE0F901F9018951ABA17BA14BA11BA40
:101AA0001BBA18BA15BA12BA19BA16BA13BA10BABA
:101AB00080E00895823061F1833020F4813009F0B4
:101AC00081C007C0833009F442C0843009F07AC075
:101AD0005BC0683008F076C0413059F42AB381E029
:101AE00090E002C0880F991F6A95E2F7282B2ABB65
:101AF00067C0442309F066C02AB381E090E002C0C9
:101B0000880F991F6A95E2F7809582238ABB58C097
:101B1000683008F057C0413059F427B381E090E0B5
:101B200002C0880F991F6A95E2F7282B27BB48C08F
:101B3000442309F047C027B381E090E002C0880F3A
:101B4000991F6A95E2F78095822387BB39C0683078
:101B5000C8F5413059F424B381E090E002C0880F09
:101B6000991F6A95E2F7282B24BB2AC0442351F51C
:101B700024B381E090E002C0880F991F6A95E2F7D4
:101B80008095822384BB1CC06830E0F4413059F456
:101B900021B381E090E002C0880F991F6A95E2F7B7
:101BA000282B21BB0DC0442369F421B381E090E0D0
:101BB00002C0880F991F6A95E2F78095822381BB46
:101BC00080E0089581E00895823021F1833020F48F
:101BD000813009F065C006C0833099F1843009F086
:101BE0005FC046C06F3079F0603118F4662339F079
:101BF00057C0603F59F06F3F09F052C002C01ABA97
:101C00004DC06ABB4BC08AB38F6002C08AB3806F7D
:101C10008ABB44C06F3071F0603118F4662331F034
:101C20003FC0603F51F06F3FD9F502C017BA36C0D0
:101C300067BB34C087B38F6002C087B3806F87BB38
:101C40002DC06F3071F0603118F4662331F028C078
:101C5000603F51F06F3F21F502C014BA1FC064BB52
:101C60001DC084B38F6002C084B3806F84BB16C074
:101C70006F3071F0603118F4662331F011C0603FAD
:101C800051F06F3F69F402C011BA08C061BB06C0D1
:101C900081B38F6002C081B3806F81BB80E0089503
:101CA00081E00895823061F1833020F4813009F0C1
:101CB00081C007C0833009F442C0843009F07AC083
:101CC0005BC0683008F076C0413059F42BB381E036
:101CD00090E002C0880F991F6A95E2F7282B2BBB72
:101CE00067C0442309F066C02BB381E090E002C0D6
:101CF000880F991F6A95E2F7809582238BBB58C0A5
:101D0000683008F057C0413059F428B381E090E0C2
:101D100002C0880F991F6A95E2F7282B28BB48C09C
:101D2000442309F047C028B381E090E002C0880F47
:101D3000991F6A95E2F78095822388BB39C0683085
:101D4000C8F5413059F425B381E090E002C0880F16
:101D5000991F6A95E2F7282B25BB2AC0442351F529
:101D600025B381E090E002C0880F991F6A95E2F7E1
:101D70008095822385BB1CC06830E0F4413059F463
:101D800022B381E090E002C0880F991F6A95E2F7C4
:101D9000282B22BB0DC0442369F422B381E090E0DC
:101DA00002C0880F991F6A95E2F78095822382BB53
:101DB00080E0089581E00895442309F064C08230F2
:101DC00011F1833020F4813009F074C006C08330F3
:101DD00081F1843009F06EC041C06F3069F060312C
:101DE00018F4662339F066C0603F49F06F3F09F090
:101DF00061C057C01BBA5CC08BB38F6002C08BB38D
:101E0000806F8BBB55C06F3069F0603118F466236A
:101E100039F050C0603F49F06F3F09F04BC043C0FC
:101E200018BA46C088B38F6002C088B3806F88BB81
:101E30003FC06F3061F0603118F4662331F03AC072
:101E4000603F41F06F3FB1F530C015BA31C085B386
:101E50008F6002C085B3806F85BB2AC06F3061F090
:101E6000603118F4662331F025C0603F41F06F3FC8
:101E700009F51DC012BA1CC082B38F6002C082B3C4
:101E8000806F82BB15C04130A9F4823061F083308D
:101E900018F4813079F405C0833039F0843051F47E
:101EA00006C06BBB05C068BB03C065BB01C062BB9D
:101EB00080E0089581E00895FA01823071F0833066
:101EC00018F4813041F505C0833059F0843019F59C
:101ED0000CC0683000F529B30BC06830E0F426B3BD
:101EE00007C06830C0F423B303C06830A0F420B347
:101EF00081E090E0062E02C0880F991F0A94E2F755
:101F000030E08223932302C0959587956A95E2F786
:101F1000808380E0089581E00895FB01823069F0BC
:101F2000833018F4813029F406C0833041F08430C6
:101F300051F081E0089589B303C086B301C083B333
:101F4000808380E0089580B3808380E00895FB0162
:101F5000823069F0833018F4813029F406C0833070
:101F600041F0843051F081E008958AB303C087B313
:101F700001C084B3808380E0089581B3808380E0D2
:101F8000089517B816B810BE80E487B93D9A379AFD
:101F900086B1866086B9089597B1907E97B997B15A
:101FA0008770892B87B9369A349BFECF349A24B137
:101FB00035B1C901089597B1907E97B997B18770EF
:101FC000892B87B910BE86B1806686B90895349B87
:101FD000FECF349A24B135B1C90108959FB79068F6
:101FE0009FBF97B1907E97B997B18770892B87B9BA
:101FF00086B1886486B9089524B135B1C9010895C0
:102000009FB790689FBF97B1907E97B997B187703F
:10201000892B87B910BE86B1886686B908959093DA
:10202000BA018093B90108951F920F920FB60F92D3
:1020300011242F933F934F935F936F937F938F93CD
:102040009F93AF93BF93EF93FF93E091B901F0910A
:10205000BA01309709F00995FF91EF91BF91AF91C7
:102060009F918F917F916F915F914F913F912F91B0
:102070000F900FBE0F901F9018951F93182F87FF7A
:1020800002C081E01FC084E064E041E00E94520E83
:1020900084E063E040E00E94520E84E062E041E0B0
:1020A0000E94520E83E0612F41E00E94DC0E84E02A
:1020B00062E040E00E94520E84E062E041E00E9453
:1020C000520E80E01F9108955F926F927F928F92DF
:1020D0009F92AF92BF92CF92DF92EF92FF920F93B7
:1020E0001F935B016C01611571058105910521F458
:1020F00080E30E943D1046C06624772443015524A6
:10210000C401B3012AE030E040E050E00E94401EEC
:102110007B018C01C601B5010E94861E3B014C016A
:102120006E0C7F1C801E911EC601B5012AE030E0B6
:1021300040E050E00E94861EC901DA015C016D0199
:102140005394A114B104C104D104D1F619C0C4013F
:10215000B3012AE030E040E050E00E94861E862F66
:10216000805D0E943D10C401B3012AE030E040E0F0
:1021700050E00E94861EC901DA013C014D015A94CB
:10218000552029F780E01F910F91FF90EF90DF908D
:10219000CF90BF90AF909F908F907F906F905F9007
:1021A00008952F923F924F925F926F927F928F92FB
:1021B0009F92AF92BF92CF92DF92EF92FF920F93D6
:1021C0001F935B016C01611571058105910521F477
:1021D00080E30E943D105FC097FD03C01B012601F4
:1021E0000DC0D094C094B094A094A11CB11CC11C8B
:1021F000D11C150126018DE20E943D106624772432
:102200004301C601B5012AE030E040E050E00E9401
:10221000A81E79018A0157016801611471048104C3
:10222000910431F481E0682E712C812C912C0AC02C
:10223000C401B3012AE030E040E050E00E94401EBB
:102240003B014C01E114F10401051105D1F61EC05A
:10225000B101C201A40193010E94861ECA01B90105
:102260002AE030E040E050E00E94861E862F805D2C
:102270000E943D10C401B3012AE030E040E050E08C
:102280000E94861EC901DA013C014D0161147104EE
:1022900081049104E9F680E01F910F91FF90EF9087
:1022A000DF90CF90BF90AF909F908F907F906F9076
:1022B0005F904F903F902F9008955F926F927F9222
:1022C0008F929F92AF92BF92CF92DF92EF92FF9246
:1022D0000F931F937B018C010E9494055B016C019D
:1022E0000E9436059B01AC01C801B7010E94420261
:1022F0003B014C0120E030E040E050E00E94060548
:10230000882394F4A114B104C104D10419F48DE21A
:102310000E943D1060E070E080E090E0A401930135
:102320000E9442023B014C01C601B5010E94D1103E
:102330008EE20E943D106401530191E0E92EF12CE0
:10234000012D112D552453942AC0C601B50120E05A
:1023500030E040E251E40E94A0025B016C01552094
:10236000A1F00E9494052AE030E040E050E00E9495
:10237000A81E611571058105910511F0552405C050
:1023800080E30E943D1055245394C801B7012AE010
:1023900030E040E050E00E94401E7B018C01C6010D
:1023A000B5010E9494050E9436059B01AC01C6014F
:1023B000B5010E947604882341F680E0E8168AEC95
:1023C000F8068AE908078BE3180748F4C801B70143
:1023D0000E94E8059B01AC01C401B30106C0C40121
:1023E000B30120E23CEB4EEB5CE40E94A0020E94B1
:1023F00094050E94D11080E01F910F91FF90EF9003
:10240000DF90CF90BF90AF909F908F907F906F9014
:102410005F900895CF93DF93EC0107C00E943D10B9
:10242000219684E690E00E940E0A88818823B1F705
:10243000DF91CF910895EF92FF920F931F93DF9357
:10244000CF9300D0CDB7DEB77C0183E0BE016E5FD5
:102450007F4F0E94A70F83E060E00E94E40D84E0BC
:1024600064E040E00E94520E84E063E041E00E949C
:10247000520E84E062E041E00E94520E8E010F5F36
:102480001F4F83E067E0A8010E945C0F89818823C9
:10249000C1F783E0B7010E948D0F83E06A810E943B
:1024A000E40D0F900F90CF91DF911F910F91FF904E
:1024B000EF9008951F93DF93CF930F92CDB7DEB7C0
:1024C000182F83E0BE016F5F7F4F0E94A70F84E04B
:1024D00064E040E00E94520E84E063E040E00E942D
:1024E000520E84E062E041E00E94520E83E0612FD0
:1024F00041E00E94DC0E84E062E040E00E94520E67
:1025000082E090E00E94E50984E062E041E00E9400
:10251000520E84EF91E00E940E0A83E069810E94CE
:10252000E40D80E00F90CF91DF911F910895662315
:1025300019F0613061F404C0803148F4805803C060
:10254000803128F480540E945A1280E0089581E07E
:10255000089580E10E945A1280E20E943D108AE0B4
:1025600090E00E940E0A80E10E945A1208950E9493
:10257000AA0983E06FEF0E94E40D84E064E041E08B
:102580000E945A0D84E062E041E00E945A0D84E00E
:1025900063E041E00E945A0D82E00E945A1288E3F3
:1025A0000E945A128DE00E945A1281E00E945A1233
:1025B00086E00E945A1280E008957F928F929F9247
:1025C000AF92BF92CF92DF92EF92FF920F931F9341
:1025D000DF93CF930F92CDB7DEB781E08983AA2432
:1025E000AA94CC24DD244E010894811C911C7C2CDF
:1025F00081E06C2D40E00E94520E7601EE0CFF1C33
:10260000EE0CFF1C8BE991E0E80EF91E24E0B22EDF
:1026100081E06B2DA4010E945C0F8981882339F52C
:10262000F701A08080E49FE10E94C40905C081E019
:102630006B2DA4010E945C0F89818823C1F30E9445
:10264000320A8C010E94450AF1E4AF1621F40C52C3
:10265000114088F108C090E3A91629F40D521140E9
:1026600010F094E4A92E8AE090E00E94E509B3946A
:102670000894E11CF11CF8E0BF1651F681E0672DCB
:1026800041E00E94520E0894C11CD11C84E0C8167F
:10269000D10409F0ACCF8A2D0F90CF91DF911F911B
:1026A0000F91FF90EF90DF90CF90BF90AF909F90F1
:1026B0008F907F90089583E4A82ED5CF81E06FE0BE
:1026C0000E94E40D81E06FEF40E00E94DC0E80E0AC
:1026D00008959091160280E020E030E040E050E064
:1026E000A82FB0E0FD01EE0FFF1FEE0FFF1FEA5312
:1026F000FE4F2083318342835383A95EBD4F1C92DA
:102700008F5F981768F79091BC0180E0E82FF0E0A8
:10271000DF01A95BBD4F1C92DF01AA56BD4F1C9281
:10272000E159FD4F10828F5F981780F71092BD011D
:102730001092BE011092BF011092C0011092C1010F
:102740001092C2011092C3011092C40181E090E086
:10275000A0E0B0E08093970190939801A093990135
:10276000B0939A011092C501109216021092BC010A
:102770001092BB0180E090E0A0E0B0E080933E02C8
:1027800090933F02A0934002B09341021092420204
:1027900010924402109245021092460210926E026C
:1027A000089581E00E945A128DE00E945A1283E43B
:1027B0000E946C0882E40E946C080895CF93DF9316
:1027C000EC0182E00E945A1280EC0E945A12CE0163
:1027D0000E940A1288E40E946C0883E50E946C083B
:1027E00080E0C036D80711F481E506C0C157D0405B
:1027F00011F487E501C085E40E946C08DF91CF9158
:1028000008958F929F92AF92BF92CF92DF92EF92F4
:10281000FF920F931F93C0904202D090C501E090A9
:102820001602FF2490C0AF2DB0E0FD01E95EFD4F20
:10283000E081E837F1F5AA0FBB1FAA0FBB1F8D017E
:102840000A531E4FA653BE4FF801608171818281E9
:1028500093812D913D914D915C910E94A002F801D0
:1028600060837183828393836F2D1DC09A01220F31
:10287000331F220F331F2A533E4FFA01EE0FFF1F63
:10288000EE0FFF1FE653FE4F80819181A281B3813D
:10289000F90180839183A283B383FA01E95EFD4F3E
:1028A0008081319780836F5F462F50E06E15F0F284
:1028B00040C0EF3209F046C0AA0FBB1FAA0FBB1FD2
:1028C0008D010A531E4FA653BE4FF80160817181DE
:1028D000828193812D913D914D915C910E949A034B
:1028E000F80160837183828393836F2D1DC09A01E9
:1028F000220F331F220F331F2A533E4FFA01EE0FD0
:10290000FF1FEE0FFF1FE653FE4F80819181A281D2
:10291000B381F90180839183A283B383FA01E95ED5
:10292000FD4F8081319780836F5F462F50E06E1599
:10293000F0F2FA01E95EFD4F808131978083DA94ED
:10294000EA94FA94F394EF1418F0CC2009F06BCFCA
:10295000D092C501E09216028091C6019091C70104
:10296000A091C801B091C90180933E0290933F02AB
:10297000A0934002B0934102992488248394A6C076
:10298000A92DB0E0FD01E95EFD4FE081EB32A9F435
:10299000AA0FBB1FAA0FBB1FA653BE4F60913E02DA
:1029A00070913F0280914002909141022D913D91A2
:1029B0004D915C910E94730216C0ED32E9F4AA0FAA
:1029C000BB1FAA0FBB1FA653BE4F60913E02709162
:1029D0003F0280914002909141022D913D914D9195
:1029E0005C910E94420260933E0270933F0280938A
:1029F00040029093410269C0ED3309F066C082E065
:102A00000E945A1280EC0E945A1288E40E946C08BC
:102A100083E50E946C08E0903E02F0903F02009136
:102A2000400210914102C801B70120E030E040E0CF
:102A30005FE40E94A604181654F0C801B70120E014
:102A400030E040E05FEC0E94060588232CF481E72B
:102A500090E00E94DE1335C0C801B7010E949405C2
:102A60005B016C010E9436059B01AC01C801B701F6
:102A70000E94420220E030E040E050E00E94460424
:102A8000882389F4C601B5010E94D11060913E02ED
:102A900070913F0280914002909141020E94940502
:102AA0000E9476080EC0C801B7010E945D116091B6
:102AB0003E0270913F0280914002909141020E943B
:102AC000F408809243020E94691393948091160245
:102AD000891528F080914202882309F051CF1F9177
:102AE0000F91FF90EF90DF90CF90BF90AF909F90AD
:102AF0008F9008952F923F924F925F926F927F92A4
:102B00008F929F92AF92BF92CF92DF92EF92FF92FD
:102B10000F931F93CF93DF93F1E02F2E312C412C95
:102B2000512C77247394EDE36E2EFBC40E94DD12CA
:102B30008093BB018091BB0181508E3FB8F780919B
:102B40004302882321F00E94D113109243029090F7
:102B5000BB0121E4921629F40E9469130E94D1134B
:102B6000DEC4892D80538A3008F099C070924402E7
:102B70008091BC018F5F8093BC01892D0E943D1024
:102B80008091BB010E946C088091BD019091BE01B3
:102B9000A091BF01B091C0018050914EA54FB540AA
:102BA00020F080916E02882369F08091C10190919C
:102BB000C201A091C301B091C4018050914EA54FB4
:102BC000B54018F081E790E0D4C28091BC0180311B
:102BD00030F088E10E945A128CE40E946C088091C7
:102BE0006E02E090BB01882321F5FF2480ED9FEF6A
:102BF000E80EF91E0027F7FC0095102F6091BD012B
:102C00007091BE018091BF019091C0012AE030E037
:102C100040E050E00E94401EE60EF71E081F191FFC
:102C2000E092BD01F092BE010093BF011093C0017C
:102C300099C2FF2420ED3FEFE20EF31E0027F7FCC0
:102C40000095102F6091C1017091C2018091C30164
:102C50009091C4012AE030E040E050E00E94401E24
:102C6000E60EF71E081F191FE092C101F092C20183
:102C70000093C3011093C401609197017091980172
:102C80008091990190919A010E94401E6093970152
:102C9000709398018093990190939A0163C234E4F0
:102CA000931689F5709244028091BC018F5F8093E6
:102CB000BC018EE20E943D108EE20E946C08809161
:102CC0006E02882319F470926E020BC08091450247
:102CD0008F5F80934502E091BC01F0E0EA56FD4F22
:102CE00070828091BC01E82FF0E0E159FD4F7082C5
:102CF000883208F03CC2803108F411C488E10E9497
:102D00005A128CE40AC44BE2941639F058E795162F
:102D100021F08FE2981609F0AAC08090BC0183943C
:102D20008092BC018091C501C82FD0E06091BD01A7
:102D30007091BE018091BF019091C0010E94E80591
:102D40005B016C01CC0FDD1FCC0FDD1FCA53DE4FC2
:102D5000A882B982CA82DB8280916E02882341F107
:102D60006091C1017091C2018091C3019091C40131
:102D70000E94E8057B018C01609197017091980198
:102D80008091990190919A010E94E8059B01AC0104
:102D9000C801B7010E949A039B01AC01C601B501AD
:102DA0000E947302688379838A839B8310926E02E8
:102DB000809146028823D1F02091C501C22FD0E036
:102DC000CC0FDD1FCC0FDD1FCA53DE4F60E070E07B
:102DD00080E090E0288139814A815B810E94420233
:102DE000688379838A839B83109246021092BD0187
:102DF0001092BE011092BF011092C0011092C10149
:102E00001092C2011092C3011092C4012092970146
:102E1000309298014092990150929A018091C50197
:102E20008F5F8093C50180911602E82FF0E0E95E84
:102E3000FD4F90828F5F8093160280914402882319
:102E400059F4809145028F5F80934502E82DF0E0B0
:102E5000EA56FD4F708202C01092440297E2981524
:102E600008F4AEC02FE0281508F0BCC0B5C03DE2A4
:102E7000931609F0BEC09090BC0193949092BC014F
:102E800080914402882359F48091460287258093DB
:102E90004602E92DF0E0E95BFD4F70828EC0109292
:102EA00044028091C501C82FD0E06091BD017091AE
:102EB000BE018091BF019091C0010E94E8055B01B5
:102EC0006C01CC0FDD1FCC0FDD1FCA53DE4F6883B2
:102ED00079838A839B8380916E02882341F160917C
:102EE000C1017091C2018091C3019091C4010E94FF
:102EF000E8057B018C0160919701709198018091A8
:102F0000990190919A010E94E8059B01AC01C801CA
:102F1000B7010E949A039B01AC01C601B5010E9452
:102F20007302688379838A839B8310926E028091F7
:102F300046028823D1F02091C501C22FD0E0CC0FEA
:102F4000DD1FCC0FDD1FCA53DE4F60E070E080E074
:102F500090E0288139814A815B810E944202688326
:102F600079838A839B83109246021092BD0110924E
:102F7000BE011092BF011092C0011092C1011092C7
:102F8000C2011092C3011092C401209297013092A5
:102F900098014092990150929A018091C5018F5FEA
:102FA0008093C50180911602E82FF0E0E95EFD4FA5
:102FB0004DE240838F5F8093160257E2591548F423
:102FC00080E690E00E94DE13709243020E94691333
:102FD00009C08FE0891530F488E10E945A128CE410
:102FE0000E946C088091BB010E943D108091BB0142
:102FF00094C29DE3991609F0C3C09090BC019394CC
:103000009092BC018091C501C82FD0E06091BD01B4
:103010007091BE018091BF019091C0010E94E805AE
:103020005B016C01CC0FDD1FCC0FDD1FCA53DE4FDF
:10303000688379838A839B8380916E02882341F120
:103040006091C1017091C2018091C3019091C4014E
:103050000E94E8057B018C016091970170919801B5
:103060008091990190919A010E94E8059B01AC0121
:10307000C801B7010E949A039B01AC01C601B501CA
:103080000E947302688379838A839B8310926E0205
:10309000809146028823D1F02091C501C22FD0E053
:1030A000CC0FDD1FCC0FDD1FCA53DE4F60E070E098
:1030B00080E090E0288139814A815B810E94420250
:1030C000688379838A839B83109246021092BD01A4
:1030D0001092BE011092BF011092C0011092C10166
:1030E0001092C2011092C3011092C4012092970164
:1030F000309298014092990150929A01E091160203
:10310000F0E0E95EFD4F6082709242022FE02915E7
:1031100030F488E10E945A128CE40E946C088CE022
:103120000E945A128091BB010E943D108091BB0108
:103130000E946C088FE40E946C08809144028823EE
:1031400029F4809145028F5F80934502809145026A
:10315000882341F082E890E00E94DE1370924302DF
:103160000E9469138091BC01883208F4D8C180E6BE
:1031700090E00E94DE13709243020E946913CFC157
:1031800033E4931609F0CBC180914402882309F4FB
:10319000BFC00E94A91284E40E946C08D090BC01B8
:1031A000CD2DD0E0FE01E159FD4F8081882309F14A
:1031B000FE01EA56FD4F8081882339F08091450257
:1031C000815080934502108210C010926E0280914F
:1031D000BD019091BE01A091BF01B091C0010097C7
:1031E000A105B10511F410924402C159DD4F1882B6
:1031F0008AC0E090C101F090C2010091C30110911A
:10320000C401E114F1040105110509F441C0C8012C
:10321000B7012AE030E040E050E00E94861EE61A46
:10322000F70A080B190BE092C101F092C20100935A
:10323000C3011093C401609197017091980180912E
:10324000990190919A012AE030E040E050E00E941C
:10325000861E2093970130939801409399015093D3
:103260009A01E114F1040105110509F44CC0C801EB
:10327000B7012AE030E040E050E00E94861E209333
:10328000C1013093C2014093C3015093C4013BC0BC
:10329000E090BD01F090BE010091BF011091C0010E
:1032A000E114F1040105110571F1C801B7012AE02B
:1032B00030E040E050E00E94861EA8019701261BE6
:1032C000370B480B590BCA01B9012093BD0130934C
:1032D000BE014093BF015093C00121153105410546
:1032E000510579F02AE030E040E050E00E94861E6F
:1032F0002093BD013093BE014093BF015093C001A4
:1033000002C0109244028D2D81508093BC01FCC0FC
:10331000E091BC01F0E0E95BFD4F80818823A9F0DA
:103320000E94A91284E40E946C08809146028725BD
:10333000809346028091BC01E82FF0E0E95BFD4FED
:10334000108281508093BC01DDC08091C50188232B
:1033500009F4D8C00E94A91284E40E946C0860910C
:10336000C50161506093C501C62FD0E0CC0FDD1FB1
:10337000CC0FDD1FCA53DE4F688179818A819B8122
:103380000E94CA006093BD017093BE018093BF018B
:103390009093C001E880F9800A811B81C801B701C0
:1033A0000E9494055B016C010E9436059B01AC01F3
:1033B000C801B7010E947604882309F447C0C801F8
:1033C000B7010E94CA006A197B098C099D096093A4
:1033D000C1017093C2018093C3019093C4010E9404
:1033E000E8057B018C01A0909701B0909801C090F6
:1033F0009901D0909A0114C0C801B70120E030E0D3
:1034000040E251E40E94A0027B018C01C601B5019B
:103410002AE030E040E050E00E94401E5B016C0179
:10342000C801B7010E9494050E9436059B01AC01BA
:10343000C801B7010E9476048823F1F6A092970193
:10344000B0929801C0929901D0929A01E091C50181
:10345000F0E0EE0FFF1FEE0FFF1FEA53FE4FE0807C
:10346000F18002811381C801B70120E030E040E023
:1034700050E00E9406058823A4F460E070E080E03C
:1034800090E0A80197010E9442020E94CA00609346
:10349000BD017093BE018093BF019093C0017092F3
:1034A0004602E091C501F0E0EE0FFF1FEE0FFF1F97
:1034B000EA53FE4F80E090E0A0E0B0E0808391838B
:1034C000A283B383E0911602E150E0931602F0E08C
:1034D000E95EFD4F10829091BC01E92FF0E0EA56C1
:1034E000FD4F8081882349F080914502815080936F
:1034F000450210924402108202C070924402915020
:103500009093BC018091BC018F3048F08CE10E9407
:103510005A1282E50E946C0882E50E946C081092A3
:10352000BB0180914202882309F404CBDF91CF9143
:103530001F910F91FF90EF90DF90CF90BF90AF90D1
:103540009F908F907F906F905F904F903F902F90C3
:1035500008950E947A150E94011408950E944C0D4E
:103560000E9456080E945E130E94B7120E94A91A78
:10357000FDCFA1E1B0E0EFEBFAE10C94C31E3C01FA
:103580007F876E876A01FC0117821682838181FD25
:1035900003C06FEF7FEF6FC39E012F5F3F4F398BEB
:1035A000288BF3012381EE85FF8523FD859123FF81
:1035B0008191FF87EE87882309F45AC3853251F43D
:1035C000EE85FF8523FD859123FF8191FF87EE879F
:1035D000853229F490E0B3010E94E81FE2CF982FD2
:1035E00010E0882499241032B0F49B3269F09C32A8
:1035F00028F4903251F0933271F40BC09D3239F0BF
:10360000903349F4116028C01260146025C018601E
:1036100023C0106121C017FD2AC0892F80538A3032
:1036200078F416FF06C0FAE09F9E902C1124980EA5
:1036300013C03AE0839E802C1124880E10620CC0C7
:103640009E3221F416FD14C3106406C09C3611F49A
:10365000106802C0983659F4EE85FF8523FD9591D8
:1036600023FF9191FF87EE87992309F0BCCF892F23
:103670008554833020F4812F8061905E07C0892FAC
:103680008556833008F09FC1812F8F7E86FD02C052
:1036900076E0972E6FE3F62EF822953619F4F0E4D3
:1036A000FF2A07C0963619F420E8F22A02C09110CA
:1036B0009A94F7FE0AC03BE3391518F45CE3B52E83
:1036C00002C0B92CB39427E009C047E0491520F4A3
:1036D000BB2447E0942EF7CF292DBB24C6010496C6
:1036E0009D878C87F6016081718182819381AE0113
:1036F0004F5F5F4F0B2D0E94FA1E6C010981202E37
:10370000332400FF04C003FD02C01DE209C0F1FE26
:1037100002C01BE205C0F2FC02C010E001C010E2D2
:10372000C1018C709070892BB9F1112311F483E0E1
:1037300001C084E0881510F088240AC0881AF3FCC0
:1037400007C080E290E0B3010E94E81F8A94C9F7A5
:10375000112329F0812F90E0B3010E94E81F23FE7E
:1037600003C004E510E00EC008E510E00BC0E11452
:10377000F10409F0805290E0B3010E94E81F0F5F4E
:103780001F4F05C0EF2CFF24F0E1EF22FF24F801CA
:103790008491882361F714C1F7FE12C0BC0C24FE8B
:1037A00004C08A81813309F4BA941B141CF0BB2431
:1037B000B3942DC0F8E0FB1550F538E0B32E27C0C8
:1037C000F6FC25C0892D90E08C159D054CF02CEF62
:1037D000C2162FEFD20624F030E8F32A01C09A94E3
:1037E000992049F0E2E0F0E0EC0FFD1FE90DF11D3A
:1037F00080818033A1F3F7FE0AC0B92CB394892DE0
:1038000090E0C816D90614F0992401C09C18F7FC62
:1038100003C025E030E009C01C141D041CF021E0A9
:1038200030E003C096012F5F3F4F112311F02F5F4F
:103830003F4F992029F0892D90E00196280F391FDC
:10384000882D90E02817390714F0882401C0821AC7
:103850004F2C5524C20189709070892B39F008C013
:1038600080E290E0B3010E94E81F8A948820C1F7AB
:10387000112329F0812F90E0B3010E94E81F43FE3D
:1038800007C008C080E390E0B3010E94E81F8A945B
:103890008820C1F7F7FE46C08601D7FE02C000E0CF
:1038A00010E076010894E11CF11CE01AF10A41E0F5
:1038B00050E04C0F5D1FE40EF51E26014B18510819
:1038C000892D90E0AA24BB24A81AB90A5FEF0F3F04
:1038D000150729F48EE290E0B3010E94E81FC0169C
:1038E000D10634F0401651061CF4F701808101C066
:1038F00080E3015010400894E11CF11C0A151B05DF
:103900002CF090E0B3010E94E81FE0CF0C151D05DC
:1039100039F49A81963318F4953311F424FE81E337
:1039200090E04BC08A81813309F00F7E90E0B301B3
:103930000E94E81F9920A1F08EE290E0B3010E945E
:10394000E81F12E0E1E0F0E0EC0FFD1FE10FF11DD8
:103950001F5F808190E0B3010E94E81F9A9491F765
:1039600044FC03C085E690E002C085E490E0B3012A
:103970000E94E81FD7FC05C0C114D10441F404FF24
:1039800006C0D094C194D108D3948DE201C08BE2DB
:1039900090E0B3010E94E81F80E305C08F5F26EF2F
:1039A0003FEFC20ED31E3AE0C316D104BCF790E03D
:1039B000B3010E94E81FC601C096B3010E94E81F30
:1039C000CC84DD8452C1933631F0933799F093352E
:1039D00009F059C023C0F601808189835E010894F3
:1039E000A11CB11C22E030E0C20ED31E21E0E22E69
:1039F000F12C12C0F601A080B18016FD03C06FEF5C
:103A00007FEF02C0692D70E022E030E0C20ED31ECD
:103A1000C5010E94DD1F7C011F7713C0F601A08045
:103A2000B18016FD03C06FEF7FEF02C0692D70E01B
:103A300022E030E0C20ED31EC5010E94D21F7C01DD
:103A4000106813FF07C01BC080E290E0B3010E9422
:103A5000E81F8A94882D90E0E816F906A8F30FC0B5
:103A6000F50117FD859117FF81915F0190E0B3018A
:103A70000E94E81F81108A940894E108F108E1147B
:103A8000F10471F7F2C0943611F0993689F517FFF9
:103A900008C0F601208131814281538184E090E0A9
:103AA0000AC0F601808191819C01442737FD409531
:103AB000542F82E090E0C80ED91E9FE6F92EF12225
:103AC00057FF09C050954095309521953F4F4F4F76
:103AD0005F4F90E8F92ACA01B901AE014F5F5F4F0D
:103AE0002AE030E00E941420E82EE889EE1A41C056
:103AF000953721F41F7E2AE030E01CC0197F9F36E5
:103B000061F0903720F4983509F0B2C00FC09037BB
:103B100039F0983709F0ACC004C028E030E00AC0A2
:103B2000106114FD146020E130E004C014FD166043
:103B300020E132E017FF08C0F601608171818281C7
:103B4000938144E050E008C0F60180819181BC017E
:103B500080E090E042E050E0C40ED51EAE014F5F21
:103B60005F4F0E941420E82E5889E51A8FE7F82E3F
:103B7000F122F6FE0BC08EEFF822E91438F4F4FEC1
:103B800007C0F2FC05C09FEEF92202C01E2D01C045
:103B9000192DF4FE0DC0FE01EE0DF11D8081803364
:103BA00019F4E9EEFE2208C01F5FF2FE05C003C053
:103BB0008F2D867809F01F5F0F2DF3FC14C0F0FEE7
:103BC0000FC0181510F09E2C0BC09E2C980C911A4B
:103BD000182D06C080E290E0B3010E94E81F1F5F2D
:103BE0001815C0F304C0181510F4811A01C08824F8
:103BF00004FF0FC080E390E0B3010E94E81F02FFC2
:103C00001DC001FD03C088E790E00EC088E590E08C
:103C10000BC0802F867891F001FF02C08BE201C0BB
:103C200080E2F7FC8DE290E0B3010E94E81F06C03D
:103C300080E390E0B3010E94E81F9A94E914C0F376
:103C4000EA94E1E0F0E0EC0FFD1FEE0DF11D808144
:103C500090E0B3010E94E81FEE2091F706C080E2D9
:103C600090E0B3010E94E81F8A948820C1F799CCA4
:103C7000F30166817781CB016196E2E10C94DF1E4E
:103C8000629FD001739FF001829FE00DF11D649F40
:103C9000E00DF11D929FF00D839FF00D749FF00DCC
:103CA000659FF00D9927729FB00DE11DF91F639F6D
:103CB000B00DE11DF91FBD01CF0111240895AA1B0C
:103CC000BB1B51E107C0AA1FBB1FA617B70710F007
:103CD000A61BB70B881F991F5A95A9F78095909539
:103CE000BC01CD01089597FB092E07260AD077FD68
:103CF00004D0E5DF06D000201AF4709561957F4F5F
:103D00000895F6F7909581959F4F0895A1E21A2E98
:103D1000AA1BBB1BFD010DC0AA1FBB1FEE1FFF1F6F
:103D2000A217B307E407F50720F0A21BB30BE40BBF
:103D3000F50B661F771F881F991F1A9469F7609506
:103D40007095809590959B01AC01BD01CF010895C0
:103D500097FB092E05260ED057FD04D0D7DF0AD0D9
:103D6000001C38F450954095309521953F4F4F4FAA
:103D70005F4F0895F6F790958095709561957F4F08
:103D80008F4F9F4F08952F923F924F925F926F9265
:103D90007F928F929F92AF92BF92CF92DF92EF92DB
:103DA000FF920F931F93CF93DF93CDB7DEB7CA1B5C
:103DB000DB0B0FB6F894DEBF0FBECDBF09942A8887
:103DC000398848885F846E847D848C849B84AA842F
:103DD000B984C884DF80EE80FD800C811B81AA81BC
:103DE000B981CE0FD11D0FB6F894DEBF0FBECDBF87
:103DF000ED010895283008F027E03327DA01990F04
:103E0000311D87FD916000966105710539F43260BE
:103E10002E5F3D9330E32A95E1F708959F3F30F000
:103E200080387105610509F03C5F3C5F3D9391303E
:103E300008F08068911DDF93CF931F930F93FF923B
:103E4000EF92192F987F9695E92F96959695E90F01
:103E5000FF27EA54FF4F99273327EE24FF24A701B9
:103E6000E70105900894079428F4360FE71EF81E22
:103E7000491F511D660F771F881F991F0694A1F7D0
:103E80000590079428F4E70EF81E491F561FC11D20
:103E9000770F881F991F661F0694A1F70590079456
:103EA00028F4F80E491F561FC71FD11D880F991FF0
:103EB000661F771F0694A1F70590079420F4490F19
:103EC000561FC71FD81F990F661F771F881F06949C
:103ED000A9F784911095177041F0D695C79557951D
:103EE0004795F794E7941A95C1F7ECE5F0E06894EC
:103EF0001590159135916591959105907FE2739597
:103F0000E118F10A430B560BC90BD009C0F7E10CBD
:103F1000F11E431F561FC91FD01D7EF4703311F4CC
:103F20008A95E6CFE894015030F0080F0AF4002794
:103F3000021708F4202F2395022F7A3328F079E313
:103F40007D932A95E9F710C07D932A9589F606940A
:103F500097956795379517951794E118F10A430BD4
:103F6000560BC90BD00998F023957E9173957A333F
:103F700008F070E37C932013B8F77E9170617D9315
:103F800030F0839571E37D9370E32A95E1F7112476
:103F9000EF90FF900F911F91CF91DF91992787FDAF
:103FA00090950895FC010590615070400110D8F77C
:103FB000809590958E0F9F1F0895FC016150704071
:103FC00001900110D8F7809590958E0F9F1F08954E
:103FD0000F931F93CF93DF938C01EB018B8181FFB4
:103FE0001BC082FF0DC02E813F818C819D812817CF
:103FF000390764F4E881F9810193F983E88306C005
:10400000E885F985802F0995892B31F48E819F8170
:1040100001969F838E8302C00FEF1FEFC801DF91CF
:10402000CF911F910F910895FA01AA27283051F1DD
:10403000203181F1E8946F936E7F6E5F7F4F8F4FD9
:104040009F4FAF4FB1E03ED0B4E03CD0670F781F38
:10405000891F9A1FA11D680F791F8A1F911DA11D1D
:104060006A0F711D811D911DA11D20D009F4689456
:104070003F912AE0269F11243019305D3193DEF6FE
:10408000CF010895462F4770405D4193B3E00FD0B4
:10409000C9F7F6CF462F4F70405D4A3318F0495D9F
:1040A00031FD4052419302D0A9F7EACFB4E0A69582
:1040B0009795879577956795BA95C9F700976105A4
:1040C000710508959B01AC010A2E069457954795FA
:1040D00037952795BA95C9F7620F731F841F951FEF
:0840E000A01D0895F894FFCF24
:1040E8004C4344204C696D69742045786365656468
:1040F800005661726961626C654F766572666C6FB5
:10410800770053796E746178204572726F7200007F
:104118000000000000000000010202030303030482
:10412800040404040404040505050505050505053E
:10413800050505050505050606060606060606061E
:104148000606060606060606060606060606060607
:1041580006060606060606070707070707070707EE
:1041680007070707070707070707070707070707D7
:1041780007070707070707070707070707070707C7
:1041880007070707070707070707070707070707B7
:10419800070707070707070808080808080808089E
:1041A8000808080808080808080808080808080887
:1041B8000808080808080808080808080808080877
:1041C8000808080808080808080808080808080867
:1041D8000808080808080808080808080808080857
:1041E8000808080808080808080808080808080847
:1041F8000808080808080808080808080808080837
:104208000808080808080808080808080808080826
:104218000808080808080801000000373431413848
:0C4228003532303936333D2F782D2B0015
:00000001FF
